:020000040800F2
:10000000004000201D8C00083D210008658C000880
:100010003F210008412100084321000800000000A2
:10002000000000000000000000000000658C0008D7
:100030004521000800000000658C0008E91F000849
:10004000658C0008658C0008658C0008658C0008CC
:10005000658C0008658C000893900008A390000848
:10006000B3900008C3900008D3900008658C000886
:10007000658C0008658C0008658C0008658C00089C
:10008000658C0008658C0008658C0008658C00088C
:10009000658C0008658C0008658C0008E3900008FA
:1000A00000000000658C0008658C0008658C000865
:1000B000658C0008658C0008658C0008658C00085C
:1000C000658C0008658C0008658C0008658C00084C
:1000D000658C0008F5C10008658C0008658C000877
:1000E0000F910008F5840008658C0008658C0008F5
:1000F000658C000800000000000000000000000007
:1001000000000000000000000000000000000000EF
:1001100000000000000000000000000000000000DF
:1001200000000000000000000000000000000000CF
:1001300000000000000000005FF808F110B5054C59
:10014000237833B9044B13B10448AFF30080012383
:10015000237010BDF400002000000000B0D900089A
:100160000C4B43B10C4810B50C49AFF300800C4860
:10017000036823B910BD0A48036833B97047094BB7
:10018000002BF7D0BDE810401847064B002BF5D0E8
:10019000184700BF00000000B0D90008F800002098
:1001A000F000002000000000002310B5074951F8BE
:1001B0003340DA00844203D80A449468A04203D34F
:1001C0000133152BF3D1FEE7107910BD78D3000869
:1001D000054B93F8DD202AB993F8082112B90122C2
:1001E00083F80821704700BF440B0020014B93F8AF
:1001F000DC007047440B002037B500240D4D23462A
:1002000001221D212846019400940AF077F901206B
:1002100008F00CFB01232846019300942346224654
:100220001D210AF06BF9062003B0BDE8304008F04C
:10023000FDBA00BF440B002070B5054616460C46BB
:100240000D4800210AF074F945F080010B4802F0D6
:100250003DFE013E651E3444084EA54205D10121F4
:10026000BDE8704004480AF063B915F8011F304634
:1002700002F02CFEF1E700BF140C0020980B0020C8
:1002800007B502AB03F8011D01221946FFF7D4FFA1
:1002900003B05DF804FB124B10B5C3F8E0000CF09E
:1002A00089FA0DA3D3E900230CF024FC0CF0BAFD6D
:1002B0000446C0F307410620FFF7E2FFC4F307211D
:1002C0000720FFF7DDFFE1B20820BDE81040FFF78F
:1002D000D7BF00BFAFF300800000000080844E4015
:1002E000440B002070B5054616460C460D4800210B
:1002F0000AF01EF905F07F010B4802F0E7FD013E10
:10030000651E3444084EA54205D10121BDE8704068
:1003100004480AF00DB90021304602F0D7FD05F877
:10032000010FF0E7140C0020980B002007B5012204
:100330000DF10701FFF7D6FF9DF8070003B05DF848
:1003400004FB38B50920FFF7F1FF05460620FFF74B
:10035000EDFF04460720FFF7E9FF000240EA0444EE
:100360000820FFF7E3FF20430CF024FA1AA3D3E997
:1003700000230CF095FA0CF055FD002104460920ED
:10038000FFF77EFF3B20FFF7D1FF40F04001C9B2ED
:100390003B20FFF775FF3B20FFF7C8FF8206FAD42A
:1003A0000F48FFF778FF3B20FFF7C0FF40F0400108
:1003B000C9B23B20FFF764FF3B20FFF7B7FF83067E
:1003C000FAD429460920FFF75BFF2046BDE83840F4
:1003D000FFF761BFAFF300800000000080844E4053
:1003E00000A1BC332DE9F84F884620B101285AD02E
:1003F0000020BDE8F88F704C2720B4F8F850FFF7C4
:1004000095FF20F0F800013028440CF0E3F90B468A
:1004100094F8FA100246002000293FD167490CF0F9
:100420008DF8064630200F46FFF780FF30F0F903C5
:1004300032463B460CBF0021604900200CF07EF89C
:10044000064640460F460CF0C5F902460B463046BC
:1004500039460CF073F80B4694F8FC100246002065
:10046000F1B900210CF06AF80022554B0CF018FA93
:100470000646D4F8F4000F460CF09CF902460B46F1
:10048000304639460CF036FB00224E4B0CF008FA91
:100490000BF0FEFF0CF0C6FCBDE8F88F0021BEE7B4
:1004A0004FF08041DEE7444CD4F81C31073B022B6F
:1004B00078D8454A02EBC303D3E92C670120D4F86E
:1004C0002051A8400CF086F902460B4630463946CA
:1004D0000CF010FB02460B46002038490CF00AFBDA
:1004E00006460F46B4F826010CF074F90022374B8B
:1004F0000CF024F832463B460CF0D2F994F828313F
:1005000082468B4694F82A01A900002BC1F11C01F8
:1005100001EB001114BF1420002001EBC801081AE0
:100520000CF048F994F824318046002B14BF0220C7
:100530000020281A800089460CF03CF902460B4640
:10054000404649460CF0D6FA0BF086FE80468946B6
:1005500094F8250104300CF03DF942464B460CF06E
:100560009FF90022002304460D460CF029FCE0B15F
:100570000022134B204629460BF0E0FF32463B4653
:100580000CF08EF952465B460BF0D8FF00220D4B63
:100590000CF086F906A3D3E900230BF0CFFF0BF094
:1005A000EBFE77E70026002788E700200449E5E70F
:1005B0002B8716D9CEF7EF3F440B00200000F03F09
:1005C0000000204000408F4078D300080000114018
:1005D00008B520B101280AD04FF0FF3008BD112026
:1005E000FFF7A4FEC0F34700404200B208BD074B2E
:1005F0001B20D3F8E020064B9A4203D9FFF796FE62
:100600009D38F2E7FFF792FEA438EEE7440B002096
:1006100040DD4A1F10B5044668B9012008F066FAAB
:100620000120FFF783FE00F0F80121430120BDE81F
:100630001040FFF725BE002008F058FA204608F0C9
:1006400063FAEDE708B5074805F066F8064805F0D7
:1006500063F80020FFF7DEFF0022044B83F8DC2064
:1006600008BD00BF840C00201C0B0020440B0020A0
:1006700008B5074805F050F8064805F04DF8012088
:10068000FFF7C8FF0022044B83F8DC2008BD00BF41
:10069000840C00201C0B0020440B0020F8B5964C65
:1006A000074694F8DD501DB1012D4FD0002627E0FC
:1006B000402094F8FE60FFF739FE00F0030141F09E
:1006C0000C014020FFF7DCFD4120FFF72FFE60F01A
:1006D0003E01C9B24120FFF7D3FD3520FFF726FECA
:1006E00000F03F0084F816011E210D20FFF7C8FD21
:1006F00084F8085184F80951A4F81451A4F812514F
:100700004FF4807200217D480BF09EFD012384F898
:10071000DC3037B17A48394605F04BF8784804F0B8
:1007200086FF94F8DD30002B40F0C5800520FFF7F0
:1007300071FF002E40F0C780D4F80411714805F015
:1007400038F8BDE8F8406F4804F071BF94F82D31D7
:1007500033203BB3FFF7EAFD40F04101C9B233203B
:10076000FFF78EFD19213B20FFF78AFDD4F81C31DD
:100770003120082B00F28E80FFF7D8FD00F07F01BA
:100780003120FFF77DFD00213020FFF779FDD4F8FF
:100790001C31082B22D8DFE803F0103C4854606C71
:1007A00078787800FFF7C2FD00F0BE0141F001014A
:1007B0003320FFF765FD1D21D5E748212F20FFF7E6
:1007C0005FFDD4F8E0000BF0F5FF3FA3D3E9002371
:1007D0000BF0B4FE0CF026FBFFF75DFD94F82B3117
:1007E00094F82E61002B5CD01D211120FFF748FDED
:1007F0004020FFF79BFD00F033014020FFF740FD54
:1008000000210F20FFF73CFD00210D20FFF738FDF0
:1008100076E744212F20FFF733FDD4F8E0000BF0FA
:10082000C9FF2BA3D3E90023D2E744212F20FFF7F0
:1008300027FDD4F8E0000BF0BDFF27A3D3E9002388
:10084000C6E744212F20FFF71BFDD4F8E0000BF092
:10085000B1FF23A3D3E90023BAE744212F20FFF7F8
:100860000FFDD4F8E0000BF0A5FF1FA3D3E9002390
:10087000AEE744212F20FFF703FDD4F8E0000BF092
:1008800099FF1BA3D3E90023A2E740212F20FFF704
:10089000F7FCA3E7FFF74AFD60F07F01C9B2312002
:1008A000F5E71F211120FFF7EBFC4020FFF73EFD8D
:1008B00000F03F01A1E726B10520BDE8F840FFF7B1
:1008C000A9BE0620F9E7F8BD000000000082BE4086
:1008D00000000000005AC440000000000082CE402A
:1008E000000000008057D440000000008084DE40FB
:1008F00000000000C058E440440B0020100100201C
:10090000840C0020300B002010B5254C01462548F2
:1009100004F04FFF94F8DD3063B1012B24D00223A3
:10092000204884F8DC3004F082FEBDE8104003204B
:10093000FFF770BE4020FFF7F9FC00F0030141F023
:1009400010014020FFF79CFC4120FFF7EFFC00F076
:100950003E014120FFF794FC3520FFF7E7FC00F053
:100960003F0084F81601DAE794F82B3173B1F521D2
:100970001120FFF785FC4020FFF7D8FC00F0330181
:1009800041F040014020FFF77BFCC8E7F721112030
:10099000FFF776FC4020FFF7C9FC00F03F01EFE7CE
:1009A000440B00201C0B002010B50D4C94F8DD30DA
:1009B000012B13D1FA211120FFF762FC4020FFF731
:1009C000B5FC00F0FC014020FFF75AFC0323072090
:1009D00084F8DC30BDE81040FFF71CBE10BD00BF3E
:1009E000440B002010B504460120FFF79FFC10F0D7
:1009F000800F14BF01220022184B83F8DD2093F8EA
:100A0000DD20A24228D0012C83F8DD4013D0FFF76F
:100A100019FE0120FFF78AFC00F07F010120FFF79B
:100A20002FFC00214020FFF72BFC3021BDE81040B7
:100A30004120FFF725BCFFF705FE2046FFF776FCB7
:100A400060F07F01C9B22046FFF71AFC0021402068
:100A5000FFF716FC0021E9E710BD00BF440B0020A2
:100A600038B5174B1749C3F80001174804F0D8FDF3
:100A70001449164804F0D4FD1249154804F0D0FD7D
:100A8000FFF7BAFBFFF75DFC0020FFF7C3FD11483D
:100A900007F020FF0024104D285DFFF7A3FF2B195E
:100AA000997858780334FFF7EBFB302CF4D1002011
:100AB000FFF798FF0022094B83F8DC2038BD00BF08
:100AC00010010020251700081C0B0020840C0020BA
:100AD000300B00200000002040D40008440B002010
:100AE00070B50E4605461446FFF77CFF3046FFF70B
:100AF000D2FB0520FFF78EFD012007F097FE284668
:100B0000FFF766FD0546FFF79DFDA542CCBF00201F
:100B1000012070BD38B500240120FFF763FFFF21DD
:100B20001120FFF7ADFB0520FFF774FD25460120DE
:100B300007F07CFE2C20FFF7F9FB00F00100A0403D
:100B40000134202C45EA0005F1D1FFF77BFD284652
:100B500038BD2DE9F04F044689B00093BDF8503000
:100B60008A4604939DF864309DF860100293154600
:100B70009DF86C309DF8682005930692DDF848904A
:100B8000BDF84C709DF854809DF858B09DF85C609D
:100B90000791FFF727FF059B069A34B1012C0799AF
:100BA00000F0878009B0BDE8F08FA54C284684F896
:100BB000FD2084F8FE30C4F8ECA0C4F8F450C4F86A
:100BC000F09084F8FA8084F8FBB084F8FC60A4F814
:100BD000F8700BF0EFFDCDE9000102460B46002056
:100BE00098490BF087FF0022974B0BF059FECDE997
:100BF000020104980BF0EEFD02460B46DDE902010E
:100C00000BF04EFE0022914B0BF04AFE0CF00AF95D
:100C1000DDE90023C4F8040187A1D1E900010BF04C
:100C200069FF0CF0FFF884B2210A0220FFF728FBCD
:100C3000E1B20320FFF724FB5046FFF7B5FA014667
:100C40001220FFF71DFB4846FFF7AEFA01461320BE
:100C5000FFF716FB390A2520FFF712FBF9B2262011
:100C6000FFF70EFBB8F1000F21D059463220FFF7F5
:100C700007FB3020FFF75AFBB8F1000F14BF00212B
:100C80006FF07F0100F06F0040EA06100143C9B227
:100C90003020FFF7F5FA3120FFF748FB40F0400124
:100CA0003120C9B209B0BDE8F04FFFF7E9BAFF2122
:100CB000DCE7BAF1020F00D9FEE7614C9DF80000B5
:100CC00084F82B119DF808100AF107090C2DC4F8BF
:100CD0001C91C4F8205184F82501A4F8267184F8E9
:100CE000288184F829B184F82A6184F82C1184F8C9
:100CF0002D2184F82E3100F29880052D40F281805C
:100D0000B9F1070F76D1A5F10B03012B77D8012399
:100D10001D2084F82431FFF709FB009B1D2048EAC1
:100D2000430141EA0911C9B2FFF7AAFA1E20FFF7F1
:100D3000FDFA049B00F00800C3F3012141EA86019B
:100D4000014341EA0511C9B21E20FFF799FA262096
:100D5000FFF7ECFA94F8241120F0080040EAC101F2
:100D6000C9B22620FFF78CFA9DF810101F20FFF75C
:100D700087FA390A2020FFF783FAF9B22120FFF71A
:100D80007FFAB8F1000F03D059462220FFF778FA16
:100D900094F82B316BB14420FFF7C8FA60F07F0163
:100DA000C9B24420FFF76CFA94F82C112420FFF705
:100DB00067FAB9F1090F2AD1D4F8E020244B0221B7
:100DC0009A424FF036001ED9FFF75AFA64213A20B2
:100DD000FFF756FA062D4FF031001BD1FFF7A6FAA8
:100DE00000F0F80141F005013120FFF749FA0C212C
:100DF000372057E7B9F1080F01D10C2D87D0002318
:100E000086E70625FBE7FFF73BFA7F21DFE70321B3
:100E10003620DDE7FFF78AFA00F0F80141F0030120
:100E20003120FFF72DFA0A21E2E7BAF1020F4FF065
:100E30000C05E4D06BE700BF0000000080847E4119
:100E4000440B00200000F03F0000204000408F4095
:100E500040DD4A1F2DE9F04F8946834687B098460A
:100E60009DF854309DF85C1001939DF85830059220
:100E70000293189B04910393109C9DF844A0BDF825
:100E800048709DF84C609DF85050FFF7ABFD484608
:100E900007F0A0FD039B0499059ABBF1000F05D054
:100EA000BBF1010F65D007B0BDE8F08F8048C0F8F6
:100EB000E820C0F8EC80C0F8F44080F8FC50C0F89E
:100EC000003180F8E490A0F8F87080F8FA6080F8BB
:100ED000FD1010460BF06EFC71A3D3E900230BF05C
:100EE00009FE0BF09FFF1FFA80F84FEA182104203B
:100EF000FFF7C6F95FFA88F10520FFF7C1F9204630
:100F00000BF058FC02460B4667A1D1E900010BF03B
:100F1000F1FD0BF087FF84B2210A0220FFF7B0F940
:100F2000E1B20320FFF7ACF9390A2520FFF7A8F951
:100F3000F9B22620FFF7A4F93020FFF7F7F9002EC9
:100F400014BF00216FF07F0100F06F0040EA05152B
:100F50002943C9B23020FFF793F93120FFF7E6F9B2
:100F600040F040013120C9B207B0BDE8F04FFFF7B3
:100F700087B94F4AB8F1020F82F81891914600D90B
:100F8000FEE708F1070BC2F81CB1C2F8204182F855
:100F900025A1A2F8267182F828619DF804200C2C66
:100FA00089F82B219DF8082089F82A5189F82C21ED
:100FB00089F82D11C9F830316CD8052C5DD9BBF1F9
:100FC000070F53D1A4F10B03012B54D8012389F847
:100FD0002431019B6BB14420FFF7A8F960F07F0139
:100FE000C9B24420FFF74CF999F82C112420FFF7DF
:100FF00047F91D2046EA4A06FFF798F946EA0B1121
:10100000C9B21D20FFF73CF91E20FFF78FF9AD0094
:1010100000F00B0045EA04150543E9B21E20FFF776
:101020002FF92620FFF782F999F8241120F0080003
:1010300040EAC101C9B22620FFF722F9390A20206F
:10104000FFF71EF92120F9B2FFF71AF9062C4FF02D
:10105000310014D1FFF76AF900F0F80141F0050101
:101060003120FFF70DF90C2137207DE7BBF1080F88
:1010700001D10C2CAAD00023A9E70624FBE7FFF737
:1010800055F900F0F80141F003013120FFF7F8F8BD
:101090000A21E9E7B8F1020F4FF00C04EBD095E715
:1010A0000000000080844E400000000080847E41EB
:1010B000440B002070B506468AB010460C460BF073
:1010C00089FB00221E4B0BF0EBFB0BF0ABFE054641
:1010D0003046FFF7E0F80522002302924FF49652C3
:1010E00007930693059304930393019318462146AF
:1010F000009208951A46FFF7ADFE3120FFF716F96A
:1011000000F0BF013120FFF7BBF80E4CF02140206A
:10111000FFF7B6F8A0214120FFF7B2F82946204694
:1011200004F047FB0222084B204683F8DC2004F041
:101130007EFA03200AB0BDE87040FFF76BBA00BF2B
:1011400000408F401C0B0020440B0020304B70B53A
:1011500093F8DC101C46012902D002294BD070BD47
:1011600093F8DD2012B1012A2FD070BD1B6C0BB992
:1011700084F80811B4F80851012D44D1254804F031
:10118000CBFA112084F80951FFF7D0F8400840420B
:1011900084F80A011B20FFF7C9F805461C20FFF759
:1011A000C5F840EA05200BF015FB17A3D3E900238F
:1011B0000BF076FB0BF00EFEC4F80C010C20FFF7D1
:1011C000B5F8400984F8100170BD93F82B31D3B104
:1011D00002211220FFF754F80F4BD3F8003193B1DE
:1011E0005C6984B11C20FFF7A1F82346BDE870407C
:1011F00000F03F00184793F8DD20012A03D193F84F
:101200002B31002BE5D170BD0000000080844E40E2
:10121000440B0020300B002010010020124B70B551
:1012200093F8DD50012D1ED11220FFF77FF810F04A
:1012300001060E4C0CD005211220FFF721F8D4F83E
:10124000003183B19B6973B12846BDE870401847EF
:1012500004211220FFF714F8D4F800311BB19B6968
:101260000BB13046F1E770BD440B002010010020A7
:101270000A4601460020FEF7DFBF37B53C4C054665
:1012800094F8DD308DF807101BB1012B34D000200D
:1012900022E0A4F814319DF8071094F8FA30A4F86D
:1012A0001211EBB901210DF10700FFF7E1FF9DF8E5
:1012B0000720531E3F2B17D884F81721284694F88F
:1012C0001711FFF7D5FFB4F8142194F81731D4F8AB
:1012D00000011344A4F81431FFF716FB03B030BD2E
:1012E0003220FEF7CDFFE2E72946224804F091FCC8
:1012F000202384F81731E1E794F82D31332063B3CC
:10130000FFF714F800F0BE013320FEF7B9FF1921F2
:101310003B20FEF7B5FF9DF80710222084F83C1112
:10132000FEF7AEFF00210E20FEF7AAFF00210D20E0
:10133000FEF7A6FF0120FEF7F9FF30F0F80304D115
:10134000FFF796F9012007F071FA28469DF807107B
:10135000FFF78EFFD4F83001BEE7FEF7E7FF00F09D
:10136000BE0141F001013320FEF78AFF1D21CFE7C6
:10137000440B0020100100200A4601460020FEF721
:10138000B1BF002373B58D4E8DF8073096F8DC3071
:101390003446012B04D0022B00F0F98002B070BD5E
:1013A00096F8DD3033B3012BF8D140211220FEF73F
:1013B00067FF1220FEF7BAFF8DF807009DF807308F
:1013C0007F4D13F0200F00F09D8020211220FEF7AA
:1013D00057FF96F82E310BB986F8DC30794804F0C7
:1013E0009BF9D5F80031002BD8D01B69002BD5D044
:1013F0009847D3E796F8FC30714DC3B33F20FEF712
:1014000095FF8DF807009DF807309B072FD40B211F
:101410003E20FEF735FF10213F20FEF731FF6948DF
:1014200004F07AF996F8FE60A6B9674804F074F9FA
:1014300084F8DC60D5F8003113B11B6903B198471B
:10144000002384F8083184F80931A4F81431A4F891
:101450001231A3E70D20FEF769FF40F04001C9B249
:101460000D20FEF70DFF584804F0E1F8E2E7B4F86C
:101470001211002936D1B4F814319BBB94F8FA301C
:1014800053BB01215148FFF777FFB4F8140194F8DA
:101490001211091AC9B22844FFF76EFFB4F81231CD
:1014A0004848A4F8143104F037F994F8FE30E3B951
:1014B000454884F8DC3004F02FF9D5F80031002BD2
:1014C000BED09D68002DBBD0002394F90A21B4F84A
:1014D00012113B48A847B3E73220FEF727FFA4F8D4
:1014E0001201D2E7B4F81401D3E70D20FEF71EFF76
:1014F00040F04001C9B20D20FEF7C2FE324804F0B0
:1015000096F8DAE71920FEF711FF40B2002886F8B6
:101510003801BFBF40428010404246B2A8BF86108B
:101520001A20FEF703FF002ED4F8E010284A40F3FB
:101530000B132ADA914230448CBF9D38A4381844EA
:10154000A4F83A011320FEF7F1FE014684F83C01AD
:101550001B48FFF711FF94F82E310BB984F8DC30EB
:10156000184804F0D9F8D5F80031002B3FF416AF35
:101570009D68002D3FF412AF94F93831B4F93A2147
:1015800094F83C110E48A84708E79142D4E7114867
:1015900004F0C2F896F8DD30012B03D108211220A7
:1015A000FEF76EFE002384F8DC30054BD3F80031E3
:1015B000002B3FF4F3AE1B6818E700BF440B00207C
:1015C00010010020840C0020300B0020560C00205D
:1015D00040DD4A1F1C0B002070B5384C94F8DC101D
:1015E0002546012902D0022948D070BD94F8DD308B
:1015F00013B1012B2FD070BDB4F812314BB9B4F830
:10160000143133B994F8FA30C3B904F58970FFF78F
:10161000B3FEB5F81231B5F8142195F816119B1ADE
:101620008B42274810DD1044FFF7A6FE95F81631CF
:10163000B5F814211344A5F8143170BD3220FEF71B
:1016400075FEA4F81201E4E7D9B21044FFF794FE46
:10165000B5F81231EFE71B4804F05EF88021122044
:10166000FEF70EFE002384F8DC30154BD3F8003172
:10167000DBB1DB68CBB1BDE87040184794F8DD30D2
:101680009BB9B4F81231B4F8142194F817119B1ACD
:101690008B420B480ADD1044FFF7EAFD94F817313E
:1016A000B4F814211344A4F8143170BDD9B2104415
:1016B000FFF7DEFDB4F81231F5E700BF440B002060
:1016C00010010020840C002038B505460C46FFF7B9
:1016D00089F915B1012D0AD038BD074B93F8FA30BE
:1016E00043B921463220BDE83840FEF7C9BD214646
:1016F0002320F8E738BD00BF440B002010B5044696
:101700000120FFF76FF9064B83F834412CB13421E7
:10171000BDE810403920FEF7B3BD1221F8E700BF45
:10172000440B002070B52F4C94F8DC302546012B7B
:1017300002D0022B31D070BD94F8DD30F3B90B210B
:101740003E2084F8083184F80931A4F81431A4F853
:101750001231FEF795FD10213F20FEF791FD94F820
:10176000FE30A3B10D20FEF7E1FD40F04001C9B20B
:101770000D20FEF785FD1C4803F059FF1B4BD3F8E5
:10178000003173B3DB6863B3BDE870401847164897
:1017900084F8DC3003F0C0FFF0E7FEF72DFDFEF724
:1017A000D0FD0020FEF736FF0024114E305DFFF71C
:1017B00019F93319997858780334FEF761FD302C04
:1017C000F4D10020FFF70EF995F83401FFF796FFEA
:1017D000002385F8DC30054BD3F800310BB15B6892
:1017E000D1E770BD440B0020300B00201001002019
:1017F00040D40008704700BF07B502A901F8010DE9
:10180000FF230122024800F0D8FE03B05DF804FB7C
:10181000A80E0020017001207047034610B5013961
:1018200011F8012F1C1A0AB9204610BD03F8012B2C
:10183000F6E7092B70B502F1FF3205460E461C464D
:1018400008D80146002AA1EB050009DD01F8016B6B
:10185000013AF7E70A23B4FBF3F3FFF7EAFF29188D
:101860000A22B4FBF2F302FB134330330B70013056
:1018700070BDF8B583EAE374A4EBE374092C164653
:1018800005460F4602F1FF3212D9002B4FF00A0332
:10189000B4FBF3F3B8BF5B42FFF7EBFF2A180A2152
:1018A000B4FBF1F301FB1343303313700130F8BD87
:1018B000002BB8BFB21E111A294400290BDC002BE3
:1018C000B8BF2D2322EAE27005EB0002BEBF2B5405
:1018D00001320130E3E700F8017BECE7F7B5089C43
:1018E00005465FEA141E0F461E4602F1FF3208D17C
:1018F0000146002AA1EB050008DD01F8017B013A51
:10190000F7E7CDF800E0FFF7E9FF291804F00F032F
:10191000092B04D8303301300B7003B0F0BD0EB189
:101920003733F8E75733F6E72DE9F3410E4604461F
:1019300008B10021017000251178002965D1AE425F
:101940004FF000036AD92370284602B0BDE8F08149
:101950005178252902D1217002325CE0302916BF6E
:10196000501C901C2021002207788046A7F1300EE1
:10197000BEF1090F00F1010010D9501986423CBF99
:10198000721BD2B2692F1DD010D8632F38D0642FAC
:1019900018D0582F2FD04FF0FF35D5E702EB820239
:1019A00007EB4202303A02F0FF02DDE7752F14D058
:1019B000782F18D0732FEED1196820461F1DFFF71E
:1019C0002CFF04E01F1D20461B68FFF752FF3B461B
:1019D00008F1010204440544AEE71F1D20461B68C0
:1019E000FFF727FFF3E71F1D1B6800930023204626
:1019F000FFF774FFEBE71F1D1B6800930123F6E759
:101A00001A68012022700433E2E7B54297D22529F3
:101A10009ED001322170013501348DE704F8013C7C
:101A2000013D91E70CB407B504AB53F8042B0193C7
:101A3000FFF77AFF03B05DF804EB02B0704713467E
:101A40000A466421FFF770BF0EB403B503AA52F82B
:101A5000041B0192FFF7F3FF02B05DF804EB03B043
:101A60007047094B10B51B6804469A688A4202D039
:101A7000DB68994204D1E0B2FFF7BEFE204610BDFC
:101A80004FF0FF34FAE700BF8400002070B5054630
:101A90000E460446601B14F8013B2BB11846314634
:101AA000FFF7DFFF431CF5D170BDF0B5A3B00646CC
:101AB0008E466C466F46104B03F1200C2546186885
:101AC0005968083303C563452C46F7D11868714639
:101AD000286009A8FFF7B3FF632806DD074B3846E7
:101AE0001B68D968FFF7D2FFFEE7314609A8FFF768
:101AF000CDFF23B0F0BD00BF70D4000884000020EB
:101B0000034B0A461B6801469868FFF7CEBF00BF2B
:101B1000840000200FB407B504A951F8040B01910B
:101B2000FFF7EEFF03B05DF804EB04B070470EB4AE
:101B300003B503AA52F8041B0192FFF7B6FF02B0E7
:101B40005DF804EB03B07047024B1B689968FFF720
:101B50009DBF00BF84000020044B9A6942F0805270
:101B60009A619A6922F080529A6170470038024067
:101B70004FF4807393FAA3F3B3FA83F301229B002B
:101B800003F1844303F560231A6070474FF48073B8
:101B900093FAA3F3B3FA83F300229B0003F1844387
:101BA00003F560231A607047184A0168136823F030
:101BB000E0030B431360164B5A6822F480325A60DC
:101BC0001A6822F480321A609A6822F480329A608D
:101BD000DA6822F48032DA604268D10342BF1968C1
:101BE00041F480311960900342BF596841F480315B
:101BF0005960D10742BF996841F4803199609207DA
:101C000042BFDA6842F48032DA6070470070004008
:101C100000040140102393FAA3F3B3FA83F30122E3
:101C20009B0003F1844303F560231A60704710237F
:101C300093FAA3F3B3FA83F300229B0003F18443E6
:101C400003F560231A60704790FAA0F00122B0FA01
:101C500080F0024B43F82020704700BF80000E4206
:101C600090FAA0F00022B0FA80F0024B43F8202056
:101C7000704700BF80000E42094A0129136823F013
:101C8000030340EA03001060064A136923F00403CB
:101C9000136101D130BF704740BF20BF20BF7047E4
:101CA0000070004000ED00E00B4A0129136823F0AA
:101CB000030340EA0300094B10601A6942F0040272
:101CC0001A6105D130BF1A6922F004021A61704707
:101CD00040BF20BF20BFF6E70070004000ED00E0ED
:101CE000054A136843F002031360044A136943F082
:101CF0000403136130BF70470070004000ED00E046
:101D0000024A136943F002031361704700ED00E0DB
:101D1000024A136923F002031361704700ED00E0EB
:101D2000024A136943F010031361704700ED00E0AD
:101D3000024A136923F010031361704700ED00E0BD
:101D4000704710B5044C6369DB0304D5FFF7F8FF57
:101D50004FF48033636110BD0004014072B6024A43
:101D6000137801331370704714020020034A13786C
:101D7000013BDBB2137003B962B670471402002056
:101D8000F0B54B4D9BB06C78002C7CD100F05EF927
:101D9000484B494F5A6A012642F080525A625B6AA8
:101DA0000DA803F080530593059B3B6823F4C053B3
:101DB00043F400633B6006230E960D930F96169630
:101DC00003F0C0FF0F23314608A8089309940A9432
:101DD0000B940C9404F076FB4FF4803306A8079321
:101DE000069606F041FF04F03BFC4FF47A73B0FB1B
:101DF000F3F008F0A5FA042008F04EFB032008F0E9
:101E00002DFA224621464FF0FF3008F039FA0A2316
:101E100009222146294803F0F7FC23464FF4E1321A
:101E20000221264802940194009403F0F9FC06F084
:101E300059F839682248FFF76DFE234603221C211A
:101E40000DA80194009408F059FB234603221D219C
:101E50000DA80194009408F051FB234603221E2193
:101E60000DA80194009408F049FB234603221F218A
:101E70000DA80194009408F041FB00F03FF900F038
:101E80002DF900F04BF919210E4808F017FB4FF01F
:101E9000FF3306220093072105230B4800F082FF41
:101EA00006F0C8FC6B780BB901236B701BB0F0BD5A
:101EB000140200200038024000700040280D00206D
:101EC00094D40008600D0020980B002008B5054848
:101ED00008F004FB044800F003FFBDE8084006F0EA
:101EE00029BD00BF600D0020980B0020034A044B61
:101EF00010681B6843401069584070475400F81F31
:101F00005000F81F1049114A0B6810B5146823449B
:101F10001B0EC37114680B6823441B0C8371146877
:101F20000B6823441B0A437112680B681344037146
:101F3000074BDA78C2705A8882701A68120A4270A7
:101F40001B68037010BD00BF5000F81F6400F81F2D
:101F50005400F81F70B5184C0321204608F0C4FA4D
:101F600011210546204608F0BFFA144B0646188892
:101F70000BF02EF812490BF083F8044630460BF0B4
:101F800027F8014620460BF02FF90BF0C9F980B273
:101F90000BF022F8044628460BF01AF809490BF01A
:101FA00023F9014620460BF06BF80BF0B9F980B22B
:101FB000400080B270BD00BF600D00207800F81FA7
:101FC00000404E4500F07F45014B1888704700BF28
:101FD0001800002008B5FFF7BDFF024B1880002055
:101FE00008BD00BF1800002008B500F03AF8BDE8B1
:101FF000084008F05EBA0020704700BF7047704785
:1020000010B54FF0FF320024054B9A619C615A6174
:102010005C611A611C61FFF7F2FF204610BD00BF32
:1020200000380240084B10B5044618684FF47A7324
:10203000B0FBF3F008F084F9002221464FF0FF30A6
:1020400008F01EF9002010BD2C00002008B5032068
:1020500008F004F90020FFF7E5FFFFF7CFFF0020AD
:1020600008BD024A1368013313607047840D0020D5
:10207000014B1868704700BF840D002013B5019014
:10208000FFF7F6FF0446FFF7F3FF019B001B9842A2
:10209000F9D302B010BD034A136823F002031360A2
:1020A000704700BF10E000E0024A136843F00203EB
:1020B0001360704710E000E04FF081707047024BF2
:1020C0001868000C704700BF002004E0024B18683D
:1020D000C0F30B00704700BF002004E0024A5368C1
:1020E00043F0010353607047002004E0024A536844
:1020F00023F0010353607047002004E0024A536854
:1021000043F0020353607047002004E0024A536822
:1021100023F0020353607047002004E0024A536832
:1021200043F0040353607047002004E0024A536800
:1021300023F0040353607047002004E07047FEE77B
:10214000FEE7FEE7704700002DE9F047814605688D
:10215000C2682B69C16923F4405313432B61836820
:102160000069EA680343D9F8140022F416420343D5
:1021700022F00C020B431343EB606B69D9F8182073
:1021800023F440731343B1F5004F6B617E4B7FD155
:102190009D424FF0190447D104F080FA04FB00F38C
:1021A000D9F804704FF064087F00B3FBF7F3B3FB7A
:1021B000F8F31F0104F072FA6043D9F804305B00B1
:1021C000B0FBF3F604F06AFA6043D9F804305B0020
:1021D000B0FBF3F3B3FBF8F308FB1363DB0032331C
:1021E000B3FBF8F35B0003F4F87604F057FA6043AE
:1021F000D9F804205200B0FBF2FA04F04FFA604321
:10220000D9F804305B00B0FBF3F3B3FBF8F308FB41
:1022100013A3DB003233B3FBF8F303F007033B44B3
:102220003344AB60BDE8F08704F020FA04FB00F310
:10223000D9F804704FF064087F00B3FBF7F3B3FBE9
:10224000F8F31F0104F012FA6043D9F804305B0080
:10225000B0FBF3F604F00AFA6043D9F804305B00EF
:10226000B0FBF3F3B3FBF8F308FB1363DB0032338B
:10227000B3FBF8F35B0003F4F87604F0F7F960437E
:10228000D9F804205200B0FBF2FA04F0EFF9B6E7F7
:102290009D424FF0190443D104F000FA04FB00F30F
:1022A000D9F804604FF06408B600B3FBF6F3B3FB53
:1022B000F8F31E0104F0F2F96043D9F804309B00F2
:1022C000B0FBF3F704F0EAF96043D9F804309B005F
:1022D000B0FBF3F3B3FBF8F308FB13731B013233CA
:1022E000B3FBF8F303F0F00704F0D8F96043D9F832
:1022F00004209200B0FBF2FA04F0D0F96043D9F860
:1023000004309B00B0FBF3F3B3FBF8F308FB13A31B
:102310001B013233B3FBF8F303F00F033B437FE7BA
:1023200004F0A4F904FB00F3D9F804604FF064084A
:10233000B600B3FBF6F3B3FBF8F31E0104F096F915
:102340006043D9F804309B00B0FBF3F704F08EF93A
:102350006043D9F804309B00B0FBF3F3B3FBF8F310
:1023600008FB13731B013233B3FBF8F303F0F007E0
:1023700004F07CF96043D9F804209200B0FBF2FA33
:1023800004F074F9BAE700BF00380140F8B504461C
:102390000E461546FFF76CFE07462268136836EABC
:1023A000030301D10020F8BD6B1CF7D0C5B9236829
:1023B0000320DA6822F08002DA60DA6822F0200274
:1023C000DA60DA6822F48072DA605A6922F0010277
:1023D0005A61012384F83930002384F83830F8BD7D
:1023E000FFF746FEC01B8542D7D2E0E7704710B525
:1023F000044630B390F8393003F0FF021BB980F87F
:102400003820FFF7F3FF0223226884F83930D368BD
:10241000204623F40053D360FFF796FE2368002084
:102420001A6922F490421A615A6922F02A025A610A
:10243000DA6842F40052DA600123E06384F839304C
:1024400010BD012010BD10B5044650B390F83930CE
:1024500003F0FF021BB980F83820FFF7C7FF022303
:10246000226884F83930D368204623F40053D360BF
:10247000FFF76AFE236800201A6922F490421A616D
:102480005A6922F022025A615A6942F008025A61DE
:10249000DA6842F40052DA600123E06384F83930EC
:1024A00010BD012010BD38B50D46044678B390F834
:1024B000393003F0FF021BB980F83820FFF796FF90
:1024C0000223226884F83930D368204623F400536D
:1024D000D360FFF739FE236800201A6922F40062F6
:1024E0001A615A6922F02A025A611A6942F480423A
:1024F0001A61196921F0200129431961DA6842F44F
:102500000052DA600123E06384F8393038BD0120DD
:1025100038BD70B50E4615460446002830D090F8F8
:10252000393003F0FF021BB980F83820FFF75EFF57
:102530000223226884F83930D368204623F40053FC
:10254000D360FFF701FE236800201A6922F490424D
:102550001A615A6922F02A025A61196921F00F01A1
:1025600031431961DA6822F400622A43DA60DA68DA
:1025700042F40052DA600123E06384F8393070BD20
:10258000012070BD704738B50546A0B10223002474
:1025900080F839300368DA6822F40052DA60DC60CF
:1025A0001C615C61FFF7EEFFEC6385F8384085F84D
:1025B0003940204638BD012038BD70B50D4690F831
:1025C00039100446C9B201291E4601D022294DD135
:1025D000002D49D0002A47D094F83830012B45D03F
:1025E000012384F838300023E36394F83930A2845F
:1025F000222B0CBF32231223E28484F83930E28C80
:102600008AB9324640212046FFF7C0FEC0B994F88F
:102610003930322B0CBF2223012384F839300023B8
:1026200084F8383070BDA368013AB3F5805FE28466
:102630004FF08001324620460DD1FFF7A7FE08B1CA
:10264000032070BD2B882268C3F3080353602369FD
:1026500043B90235D3E7FFF799FE0028F0D123688C
:102660002A785A600135CAE7012070BD022070BD8A
:1026700070B51E4690F839300446DBB2012B0D468A
:1026800001D0122B51D1002D4DD0002A4BD094F8FF
:102690003830012B49D0012384F838300023E3631C
:1026A00094F83930A285122B0CBF32232223E28505
:1026B00084F83930E38D5BB994F839300020322B3F
:1026C0000CBF1223012384F8380084F8393070BD20
:1026D000013BE385A3683246B3F5805F4FF02001EC
:1026E000204611D1FFF752FE08B1032070BD2368C8
:1026F00022695B6822B9C3F3080325F8023BD9E7D6
:10270000DBB225F8013BD5E7FFF740FE0028ECD10E
:10271000236821696A1C5B6811B92B701546C9E7EB
:1027200003F07F03F9E7012070BD022070BD90F82F
:102730003930DBB2012B01D0222B20D1E9B1E2B13B
:1027400090F83830012B1AD0012380F8383000235C
:10275000C3638284C28490F8392080F83830222AFA
:102760000CBF3222122280F8392002680162D3683D
:10277000002043F08003D36070470120704702209F
:10278000704790F83930DBB2012B01D0122B28D1E1
:1027900029B322B390F83830012B22D0012380F8DE
:1027A00038300023C3638285C28590F8392080F8D1
:1027B0003830122A0CBF32222222036880F83920D6
:1027C000DA68816242F48072DA605A69002042F06D
:1027D00001025A61DA6842F02002DA607047012093
:1027E000704702207047134690F8392010B5D2B2D6
:1027F000012A044601D0222A2ED159B353B394F8AA
:102800003820012A28D0012284F838200022E263EF
:1028100094F83920206B222A0CBF3222122284F82D
:1028200039200E4AA384E384216282620C4AC26288
:102830000C4A02632268043204F01DFF6FF040026C
:10284000002023681A605A6942F080025A6184F8B5
:10285000380010BD012010BD022010BDDD29000888
:102860000B2A0008572A000838B5044690F83900AA
:102870001346C0B2012801D012282BD141B33BB37B
:1028800094F83820012A25D0012284F8382000222B
:10289000E26394F83920606B122A0CBF32222222A4
:1028A00084F839200C4AA162A38582620B4A25680C
:1028B000C2620B4A02630A46291D04F0DCFE0020B6
:1028C0002268536943F04003536184F8380038BDEF
:1028D000012038BD022038BD172A00084B2A000805
:1028E000572A000890F83830012B26D0012390F8A1
:1028F000392080F83830122A09D10268536923F050
:1029000080035361002380F838301846704790F8F0
:102910003920222A04D10268536923F04003F0E7EA
:1029200090F83920322A04D10268536923F0C00399
:10293000E7E7002280F83820E7E70220704790F8A8
:10294000383082B0012B32D0012390F8392080F842
:102950003830122A08D10268536943F0800353616A
:10296000002380F838301FE090F83920222A0AD15D
:1029700003681A6800925A680092009A5A6942F0F5
:1029800040025A61ECE790F83920322A09D10368F5
:102990001A6801925A680192019A5A6942F0C0027B
:1029A000EFE7002280F83820184602B07047022076
:1029B000FBE7026810B553690446006B23F0C003BF
:1029C000536108B104F095FE606B08B104F091FE0C
:1029D0000123002084F8393010BD704708B5036822
:1029E000426A1B6813F020030AD1D38413685A6922
:1029F00022F080025A61DA6842F04002DA6008BDD3
:102A0000104609F0B0FB08BD704708B5406AFFF7F3
:102A1000FBFF08BD7047026808B51268436A12F0F0
:102A200020020DD11968DA854A6922F040024A6114
:102A300093F83920322A0CBF1222012283F8392060
:102A4000184609F0AFFB08BD704708B5406AFFF7AC
:102A5000FBFF08BD704708B50023406AC385C384E7
:102A6000012380F83930C36B43F01003C36309F0CE
:102A7000B7FB08BD026813B511680446C907D368DF
:102A800005D5DB0542BFC36B43F00103C363116887
:102A90005369880703F0010304D51BB1E16B41F0D2
:102AA0000401E1631168490704D51BB1E16B41F0F2
:102AB0000201E1631168080704D51BB1E36B43F021
:102AC0000803E3631168D368890633D5980631D5C6
:102AD00094F8393003F0EF03222B2BD1A36821693E
:102AE000B3F5805FA36A76D1526800296FD1C2F333
:102AF000080223F8022BA362E38D013B9BB2E3851E
:102B0000C3B923682046DA6822F02002DA6094F81C
:102B10003920322A17BFDA68122322F48072DA6071
:102B20001FBF5A6922F001025A61012384F839302B
:102B300009F038FB23681968DA68090622D51006FF
:102B400020D594F8392002F0DF02122A1AD1A268A7
:102B5000B2F5805F226A4CD11188C1F30801596037
:102B60002169002943D102322262E28C013A92B2F9
:102B7000E2843AB9DA6822F08002DA60DA6842F078
:102B80004002DA601968DA68490610D552060ED597
:102B9000DA68204622F04002DA6094F83930322BAD
:102BA0000CBF2223012384F8393009F0DCFAE36BEF
:102BB0005BB1236820461A6801925B680193019B10
:102BC000012384F8393009F00BFB02B010BDD2B2FA
:102BD00023F8012B8FE721B9591C5268A1621A70A2
:102BE0008AE75268591CA16202F07F02F7E70132BE
:102BF000BAE7511C216212785A60B6E790F8383073
:102C0000012B4FF002030CD0026880F83930D368F2
:102C100043F00103D360012380F83930002380F8AA
:102C200038301846704790F83830012B4FF00203C7
:102C30000CD0026880F83930D36843F00203D360C7
:102C4000012380F83930002380F838301846704767
:102C500090F83830012B4FF002030CD0026880F856
:102C60003930D36823F00203D360012380F8393070
:102C7000002380F838301846704790F83830012B20
:102C80004FF002030ED0026880F83930D36823F089
:102C90000C0343F00803D360012380F8393000238C
:102CA00080F838301846704790F83830012B4FF0D4
:102CB00002030ED0026880F83930D36823F00C0389
:102CC00043F00403D360012380F83930002380F8F7
:102CD00038301846704790F839007047C06B70471D
:102CE00037B50546002406F08FFA2846234610F92A
:102CF000581F01220194009407F000FC284602238B
:102D000010F9641F012200930194234607F0F6FB9B
:102D10002846234610F9701F01220194009407F001
:102D2000EDFB01222846234610F97C1F01920092F8
:102D300007F0E4FB03B030BD30B500259DF90C4031
:102D4000856069B90261436107220023C1600362A3
:102D500043628362C2620CB94FF48273436030BD38
:102D60004FF40061EEE70E4B1A6800238A4204D943
:102D70000133072B4FEA5202F8D113F0040F0CBFB6
:102D80000022202213F0020F0CBF0021102113F0AB
:102D9000010F0CBF002308230A431343C36170478C
:102DA0002C0000202DE9FF478A46044690461F4626
:102DB0009DF93060FEF7D2FFBAF1070F65D12046CA
:102DC0003E4B5A6942F480525A615A6922F4805249
:102DD0005A611A6A42F480521A621B6A03F48053E1
:102DE0000293029B364B02254FF0050940F8583BF1
:102DF0002A46002351468DE8200207F07FFB00237E
:102E00002A46414604F164008DE8200207F076FB73
:102E100000232A46394604F170008DE8200207F0AD
:102E20006DFB012331460093CDF8049000232A4620
:102E300004F17C0007F062FB01361BD14FF40073F4
:102E4000A3610023A360E360236163612362636283
:102E5000A3620723E3624FF482736360194920463B
:102E6000FFF781FF204600F049F8FEF77FFF04B02E
:102E7000BDE8F08700230722A360E360236163615C
:102E800023626362A362E262E7E7BAF11F0FE5D152
:102E90000A4B20469A6942F480429A619A6922F468
:102EA00080429A615A6A42F480425A625B6A03F431
:102EB00080430393039B044B95E700BF0038024017
:102EC00000300140809698000038004038B5054633
:102ED00002680C46136843F040031360FEF73EFFA0
:102EE0002B689A689107FCD5E4B2DC609A68D20737
:102EF000FCD5DC68FEF73AFFE0B238BD10B50446F9
:102F0000002832D090F8513003F0FF021BB980F84E
:102F1000502006F077F90223216884F851300B68BD
:102F2000A06823F040030B606368A2690343E06874
:102F300003432069034360690343E0690343206A54
:102F40000343A06A034302F4007003430B60120CB6
:102F5000636A02F004021A43E36A4A6000200B61CC
:102F60000123606584F8513010BD012010BD0000C0
:102F700030B50C460E4B05460E4885B0036003F590
:102F80008A331A6A42F400721A621B6A03F40073ED
:102F90000393039B08F02AFF631C07D0002303223E
:102FA000019300932146284607F0A8FA05B030BDEA
:102FB00000240140880D00204FF0206208480023C3
:102FC00042634FF48062426101228360C3604362C6
:102FD000C3628363C36382628361C36108F0DBBA47
:102FE000880D0020002330B585B001930293039330
:102FF000012292FAA2F3B3FA83F302249B0003F1B5
:10300000844303F58E031A60284A94FAA4F31068E7
:1030100094FAA4F3B3FA83F303F01F0320FA03F343
:10302000DB07F2D5136A224C43F400731362136A70
:10303000204603F400730093009B012302930623B0
:10304000019101A9039308F0C5FC2268204693680A
:1030500043F00103936008F0D1FD4FF0FF312046AB
:1030600008F059FB204608F0DBFB226885B2936824
:1030700023F001039360019B103B012B02D82046F3
:1030800008F0B4FE094A136A23F4007313620123A3
:1030900093FAA3F3B3FA83F3002228469B0003F1CB
:1030A000844303F58E031A6005B030BD003802403A
:1030B000880D0020000000002DE9F04FDFF8988017
:1030C0001F46234C18F801308DB00A9363680646FA
:1030D000894693469DF858509847002835D10B9063
:1030E000E26830469047012608220B9BDFF86CA06F
:1030F0000793069305930493039302970192009319
:103100008AF80490334609950896A7690A9A5946A1
:103110003046B8479AF81830C84483B198F8101070
:103120000D31636DC9B230469847636B55B9094A92
:103130000125D068984728460DB0BDE8F08F98F873
:103140002010EDE700209847F5E70025F3E700BFE2
:1031500050D90008180E0020A8D40008180200203A
:10316000074B10B51C7E074B0B4434B11B7C10443D
:10317000834234BF0020012010BD93F82030F6E7D1
:1031800018020020A8D40008012370B50025214CA6
:10319000214E224AA385137053709370204B3278CE
:1031A00006F124011A70727803C95A7096F821202A
:1031B000657683F8212003F1240282E8030003F1FD
:1031C0002C000C2206F12C01E5612562656284F871
:1031D000285084F8295084F82A5084F82E5084F816
:1031E0002F5002F016FD0C2206F12C0104F13000E4
:1031F00002F00FFD236C84F83C5084F83D5084F8B5
:103200003E501BB9482384F8443070BD5D629B6A10
:10321000F7E700BF18020020E00D00201C0000208E
:10322000180E002000232DE9F74F036043608360F0
:103230003B4B019203EB8102D2F83080394A0446BD
:1032400090458A466AD0384DA8450CBF0225002516
:10325000012013F80A30984009F0BCFA06464046AF
:103260000F4609F0A7FA02460B463046394609F0E8
:1032700041FC00222D4B09F013FB06460F462C4B58
:1032800093F808B0ABF10400400009F0A3FA32460D
:103290003B4609F005FB019B80465800894609F032
:1032A00089FA02460B464046494609F047F932463C
:1032B0003B4609F01FFC08F0CFFF09F0B3FD834542
:1032C00038BF834600221B4B3046394609F0E8FAE6
:1032D00080465846894609F06DFA32463B4609F069
:1032E000DFFA0022144B09F0DBFA02460B46404697
:1032F000494609F021F900224FF0804309F01CF9FA
:1033000008F0AAFF84F800A06570C4F804B009F0C2
:1033100061FDA060204603B0BDE8F08F012597E76E
:10332000A8D4000890D0030020A1070000408F40DF
:10333000180E0020000010400000E03F10B50D4CBA
:1033400004F1480002F0E8F994F83C20234632B139
:10335000012284F82920E26D22F00402E26593F84C
:103360006030022B01BF044A137843F0100313703E
:1033700010BD00BF18020020DC0D002008B50C4B6A
:10338000DA6D42F04002DA6593F83C300BB1FFF79A
:10339000D5FF084A08481378012143F0120313703F
:1033A00002F007FABDE80840034802F040B900BF48
:1033B00018020020DC0D00207C02002073B5134CA5
:1033C000134E04F1780002F0A7F994F86050D4F895
:1033D0009C10AB1E5D425D4194F9982094F89930A1
:1033E00000910C48716AFEF795FBB4F89C3094F894
:1033F000992094F998100095706AFFF75DFE10B15E
:10340000012384F8A43002B070BD00BF1802002070
:10341000180E002040D5000810B50B4C94F8603011
:10342000022B0DD0094BDB6A98470223084A84F827
:10343000A93084F8BD30137843F01003137010BD29
:10344000FFF7BCFFF1E700BF1802002050D90008C9
:10345000DC0D00202DE9F84302F0B5F95A4C07467F
:1034600094F86030022B00F08780584BDB6A984755
:10347000574EB378002B00F08280D4F8C81055481E
:103480001E3902F096F9534802F0D1F894F86030F2
:10349000022B07D05048D4F8E01002F08AF94E48C9
:1034A00002F0C5F894F86030022B02D094F83C305A
:1034B0007BB14FF47A71494802F09EFBD4F8E010DA
:1034C00001F5FA610144464802F073F9444802F0FC
:1034D000AEF894F84450C4F82473ED00631993F8DF
:1034E000E9200C2303FB02620023D360637E976014
:1034F0009788002B54D1D4F8280302F066F909F01C
:1035000059F92DA3D3E900238046894609F03AFCF6
:10351000002843D12AA3D3E900234046494609F0B5
:1035200031FC002842F2107318BF4FF47A73BB428B
:103530004FF00C0138BF3B46254495F8E920013B8C
:1035400001FB0266D4F82C235343F360A38DD4F817
:103550003423D4F82C13013B01FB0323C4F8343388
:1035600094F83C3033B984F8A93094F8283001330A
:1035700084F82830BDE8F883FFF720FF78E784F867
:10358000A930032384F8BD30164B1A780AB90122FA
:103590001A701A7842F010021A709AE76423C6E78C
:1035A00094F83033002BD1D07B1ED4F82C735F43BA
:1035B000D760CBE7AFF300800000000040774B41BD
:1035C00000000000FCE182411802002050D90008F0
:1035D0001C000020E40200209002002018FCFFFFE5
:1035E00060020020DC0D002037B5114C04F1CC0046
:1035F00002F092F8002384F8A43094F86030022B93
:1036000002D10C4B1B6B98470020B4F8903094F813
:103610008D2094F98C1094F84440074D0090074891
:1036200004F0070405FB0400FFF746FD03B030BDBE
:103630001802002050D90008C0270900A0700837E0
:1036400010B50E4C94F86030022B14D00C4BDB6A92
:10365000984794F8A430012B0CD194F83C20032314
:103660000AB184F8A930074A84F8BD30137843F0D2
:103670001003137010BDFFF7A1FEEAE71802002047
:1036800050D90008DC0D002010B5154C94F86030BE
:10369000022B1BD0134BDB6A984794F8A43094F8A4
:1036A0003C20B3B904230AB184F8A930D4F8240328
:1036B00084F8BD3002F089F8D4F8E030984204D3A1
:1036C000094A137843F01003137010BDFFF776FE1C
:1036D000E3E705230AB184F8A93084F8BD30EFE7A9
:1036E0001802002050D90008DC0D0020002310B57E
:1036F0000D4A40FA03F111F0010F14BFFF21002120
:103700005C1C40FA04F4E40703F1020348BF61F0D3
:10371000FF01082B118002F10202EAD10022034BC3
:103720009886DA8610BD00BF440E0020180E0020D7
:10373000F8B5174E0D46174696F9013018B11549E0
:103740001BB918464B623B70F8BD4C6A00213F2CF8
:1037500017D95F2C3170F6D904F01F04012CF2D177
:10376000082B10D08B42EEDD013BDCB263B2002CA3
:10377000E9D155B1084B988EFFF7B8FF284623468C
:10378000E1E70846DFE70423DDE72B46DBE700BF80
:10379000180E002018020020E00D00200022012158
:1037A000134610B501FA02F4844308BF013302F155
:1037B000010208BFDBB2102AF4D1184610BD2DE972
:1037C000F74F00240746A24626464FF0010837F877
:1037D00014505FFA84F9EBB218460193FFF7DEFF4D
:1037E000052805F47F4B1CD9DEB9019B1D4027F845
:1037F00014506300CA46012608FA03F33B810134E2
:10380000042CE4D14EB100231A46D9B28A4518BF20
:1038100027F813200133042BF7D1304603B0BDE85D
:10382000F08F5846FFF7BAFF0528E8D9002EE6D1F9
:1038300005EA0B05630027F814500133DAE770B589
:103840000024861E851D36F8020FFFF7A7FFB5423C
:103850000444E4B2F7D1204670BD38B504460E48A2
:103860000D4690F90130042B03D0083BDBB2052B49
:1038700004D8022CB8BF0224204638BD2C30FFF7F4
:10388000DEFF312803D9AC42B8BF2C46F4E7052C43
:10389000B8BF0524F0E700BF180E00202DE9F04F57
:1038A00007460D4689B0A04C01920293019B9D42B0
:1038B00002D309B0BDE8F08F7B5D6E1C023BF6B20F
:1038C000062BF6D8DFE813F00700150013013601C8
:1038D0009201BC01D501002384F8BD30BA5DAB1C58
:1038E000DBB284F8C420FB5C0335EDB284F8C5304C
:1038F000DCE700230DF1140ADFF834920593CAF8CF
:103900000430CAF8083003EB0902928D2AF803202C
:1039100002330C2BF7D1BB5D681D03F00F02009240
:1039200094F838231B094FFA83FB22BB99F9012035
:103930005A4504D199F9002000998A421BD094F885
:103940002F2094F82E30C2F10F02D2B2013A9342E6
:103950000FDA0321E21882F839139A1C84F82E201A
:1039600000220133DBB2234483F83923012384F896
:103970003E30C5B29AE7291DEA1C0235D2B2EDB23B
:10398000C9B2BE5C17F801807A5DC5B242EA062270
:10399000C8F3021618F00F0808BF4FF00108062EF2
:1039A00059D14FF6FF710726ADF81410ADF8161077
:1039B000ADF81810ADF81A10ADF81C20042B40F229
:1039C000948006F0FD06009B0A2B00F37C81072EF5
:1039D00026D19DF800300C225146544889F8003019
:1039E00089F801B002F015F9238EBDF8142089F88A
:1039F000208013402386BDF81620638E1340638613
:103A0000BDF81820A38E1340A386BDF81A20E38EBC
:103A10001340E386BDF81C302387BDF81E30638752
:103A200094F82F2094F82E30C2F10F02D2B2013A4E
:103A30009342BFF63BAF0321E21882F839139A1C78
:103A40000133DBB2234484F82E2083F83963012349
:103A500084F83E302AE7072E0BD10021ADF81C2058
:103A6000ADF81410ADF81610ADF81810ADF81A1026
:103A7000A4E7052E16D008A901EB4606032B26F86D
:103A80000C2C11D850460393FFF7D9FE01288CBFA8
:103A900007260626039B50460393FFF790FE039BE1
:103AA00000288BD1062689E70726F4E74EFA03F1B2
:103AB000C9070DD5C11804EBC10191F8E81041F315
:103AC000031C41F30301594502DCE3457FF77BAF5B
:103AD0000133102BEAD10132052A3FF472AF05AB56
:103AE00033F812E010010023E0E70022F7E701219C
:103AF000BB5D94F82F2084F82A3001FA03F3A385E4
:103B0000C2F10F0294F82E30D2B202359A42EDB2D1
:103B10007FF6CCAE5A1884F82E200422234483F872
:103B2000392384F83E10C1E618020020440E00201C
:103B3000180E00202A1DE91CD2B2AB1CC9B217F81E
:103B40000280DBB2795CFB5C4FEA084848EA012856
:103B500048EA03034FF0640808FB03F85E4BBE5DC0
:103B6000053540461B6AC6F30219EDB206F00F0692
:103B70009847002838D0594B594A4344934233D888
:103B80005849B3FBF1F201FB1233002B14BF06229C
:103B90000722F6B2A6F10803052B00F29780B9F1CF
:103BA000030F00F39680072A01BF4F4B83F828606C
:103BB000C3F8248083F8219094F82F1094F82E30C5
:103BC000C1F10F01C9B201398B42BFF66FAE0520BA
:103BD000E11881F83903991C0133DBB284F82E1007
:103BE000234483F8392332E70622D2E7D4F8483356
:103BF00023B39B6813B3984794F82F2094F82E3082
:103C0000C2F10F02D2B2023A934215DA0621E2184B
:103C100082F839135A1CD2B2224482F83903DA1CD2
:103C2000023384F82E20DBB29DF80820234483F869
:103C30003923012384F83E30354637E6FF20DBE7A1
:103C400094F82F2094F82E30C2F10F02D2B2013A2C
:103C500006359342EDB2BFF629AE0721E21882F88D
:103C600039139A1C0133DBB284F82E20234400223E
:103C7000B7E7B85D1C4E10F00F0008BF012008F038
:103C8000A9FD0022194B08F00BFE09F0CBF83061BA
:103C900008F090FD0022154B08F050FC09F0C2F826
:103CA00094F82F2094F82E30C2F10F02D2B20235D0
:103CB0009A42EDB270617FF6F9AD5A1C84F82E205D
:103CC000234408228DE706F0FB06A9E602F0FD0278
:103CD00065E702F0FB026FE750D90008608FF7C874
:103CE00040164000C0270900180E002000408F40F9
:103CF0002DE9F04F0C46002107468FB0DBB2079349
:103D0000BC4D9DF81C300D912B7495F8A43085F8AE
:103D1000AC106B74B84BEA81DB6AE970A970697109
:103D2000A96029736973A97469612970984705F1BD
:103D3000780001F0F1FC3B7808935B09013B062B0E
:103D400000F2F181DFE813F00700EF018500EF01D9
:103D50008500EF01DC016B7E13B101236B7016E16E
:103D6000611EA64BD5F86C2489B2781C04F0E6FCE1
:103D70009DF82030211F85F86C332C440DABD5F80D
:103D80006C2489B29E4804F0BAFC94F86A3394F823
:103D900069231B0443EA022394F86823134394F82D
:103DA0006B2343EA02630D9A93424ED19549B5F8CD
:103DB0007024009101F11003D5F86C04213104F056
:103DC000DFFC95F8723395F871231B0443EA022354
:103DD00095F870238C4C1343C5F87434D5F87333BD
:103DE0008A48C5F8783495F87733C3F3021203F0A4
:103DF0000F0384F8283095F8783384F8212013F0E5
:103E00000F0308BF012323614FF47A7322695343E0
:103E1000236103F57A736361002385F8BD300123C4
:103E20006B76FDF791FE7A4B5B786370794A7A483E
:103E30001378012143F01003137001F0BAFC7648A7
:103E400001F0F5FB0FB0BDE8F08F062385F8BD301B
:103E5000ECE7D7F801300593059AD5F878349A4203
:103E600075D0D5F84090B9F1000F01D10A2375E75C
:103E7000D9F80030059A9A4266D14FF0010B09F14A
:103E800004030693D9F8245009F1140309937B79AC
:103E900097F8068004933B1913F802AC13F8032C2F
:103EA0004FEA0A4A4AEA022A13F8042C13F8013CA2
:103EB0004AEA020A4AEA03630B93FB79211F48EAA4
:103EC0000328A8EB05081FFA88F80FFA88F3002BDF
:103ED00046DB4FF0010A049B08EB050603F00F03D5
:103EE0000A930DAB0293069A059B0196CDF800A0AC
:103EF00089B2384604F04AFB0D9B0B9A3D4D9A421D
:103F000040F01681B8F5804F3DD20023049A6B70C3
:103F1000C2F3001285F802B06A71AB602B736E6158
:103F200085F8A9306B6285F82F30A846BBF1000FE9
:103F300074D002232B70D9F824309E422AD14EB37C
:103F4000072388F8013022E0D9F828908BE74FF05A
:103F5000000B2C4B2D6A099310330693D94696E734
:103F600005F580361E440DAB0293012301960093A4
:103F7000069A059B89B2384604F008FB0D9B0B9A04
:103F80009A4218BF2E4609221A4B5A705E61FFF7FB
:103F9000F5F957E7C9F824604FF0000998F8A83000
:103FA000012B02D1049B980602D5002388F82E30FD
:103FB0000A9B03F10802231F9B1A002B40F39080F9
:103FC0000A9BB95C03F1090AA4EB0A04094B043CFF
:103FD000E4B2D970002958D1049A12F00F0B3DD0E9
:103FE00001230C490A7842F0020263F382020A704C
:103FF0001CE700BF1802002050D9000885050020EA
:104000008405002064050020180E00207ED50008DD
:10401000E00D0020DC0D00207C020020089A02F058
:10402000E002A02A0ED12B6A85F83DA09E4285F8B9
:1040300000A010D116F1000918BF4FF00109C8F80F
:104040002060ABE785F83D302B702B6A9E4202D191
:10405000002E7FF475AF4FF00009F0E703F55B75B4
:104060000123069A00932146059B07EB0A0002955F
:10407000019604F03DFB224659462846079BFFF770
:104080000DFCB9F1000F1DD0AAE7049B190704D05D
:10409000079B08213846FFF701FC01960126DFF84F
:1040A000A4B00096CDF808B0059B099A214607EB0D
:1040B0000A0004F01DFBB9F1000F91D1C5F808B05A
:1040C0002C736E73049B13F0200410D0012388F826
:1040D000AC3088F81230194801F01EFB002380E74D
:1040E000049B1B07CDD0079B08213846C7E7144B1C
:1040F00088F8AC405A781B789A42ECD8234670E78F
:10410000104E2246791C304601F083FD03232B70AC
:1041100000230D4A6B701378013C43F00203AE603C
:104120002C73137082E601236B70FFF727F97DE68D
:10413000B8F5804FBFF427AF0B230FE660020020D5
:104140001C00002084050020DC0D00202DE9F0413A
:104150000E46002186B01746BDF83020BD4C8B427C
:1041600008BF0A461D460378D2B284F87F3403782C
:1041700005915B09A4F87C1484F83C1084F87E2433
:10418000072B00F27581DFE813F00800730161006E
:1041900073015E007301730156010123AE4DD4F823
:1041A0008015E8180822A4F87C3401F03CFDB4F82E
:1041B0007C04D4F88415083080B2A4F87C0408226A
:1041C000284401F030FDB4F87C340833A4F87C3482
:1041D000A24B5B699847B4F87C3482B2E11881F84D
:1041E0007F04991C01339BB2A4F87024234489B244
:1041F000120AA4F87C1483F87F24C9B2D4F86C2482
:1042000005AB284604F07BFAB4F87C34059AE11833
:1042100081F87F24591C89B22144100A81F87F0457
:10422000991C89B22144100C81F87F04191D0333B5
:104230009BB2A4F87C14120E1C4484F87F24002046
:1042400006B0BDE8F081012384F83C30637E002B8A
:1042500000F010813078824A0121C009FFF768FA26
:10426000337860F38613337094F83D3033B1002314
:1042700084F83D30337843F020033370D4F8783439
:10428000DFF8E4811A0A84F8803484F881241A0C57
:104290001B0E84F8822484F88334337894F82E003B
:1042A00084F88434E36908F24F2184F8853494F863
:1042B0002F201B0A404484F8863401F0AAFC94F8AD
:1042C0002E1094F82F301944C9B284F82E10002D06
:1042D00073D094F87E34002B6FD00F2977D894F8E0
:1042E0003E30002B73D0337888B2C3F303020A4404
:1042F00062F30303337084F88434002308F5A37653
:104300009AB2904252D8284601F10806F6B200222D
:104310004FF0080E13464FF0050C84F83E209942EA
:1043200057D884F82F2012B1012384F83E30C0B151
:1043300094F87E14A9B1751C474AEDB2531926446E
:1043400086F87F740293E36989B20193002F6AD1E2
:1043500000976FF49177D4F878343A4404F050F928
:104360002E46002594F87E1405AB3144A4F87C1445
:104370000293E3693B4A0193009502F22310D4F8BB
:10438000783404F003F9059BB4F87C24180AA118CA
:1043900081F87F3481F880040432180C1B0E81F8F8
:1043A000810481F88234A4F87C2448E718F803E0FB
:1043B000F21882F808E00133A2E741B194F83E30E8
:1043C0002BB10027284884F87E1408269FE728464A
:1043D000FBE7E51895F83953033D052D15D8DFE8BF
:1043E00005F02014031D2017013304EB0208DBB293
:1043F000551C88F888C504EB0308EDB298F839839A
:1044000002322544D2B285F888850133DBB286E7D3
:10441000551C224482F888E5EAB2F6E70233DBB2A3
:10442000F3E70133FBE700236FF499760093D4F8A8
:104430007834324492E7002D3FF401AFE2B12946CF
:104440000A4801F0E6FB94F87E340133A4F87C348A
:10445000F5E600BF180200209706002050D900089A
:10446000190E002074050020510500209806002038
:104470000220E5E60720E3E61046E1E62DE9F047F5
:104480008CB00CAB03E903000C213B4A9DF82D30A6
:10449000DFF8008101FB032398F9000093F906106F
:1044A000FFF7DBF9012598F90160344CDDF828901D
:1044B000A757044494F970A0314C84F8AA60314E97
:1044C00084F8AB00F368484684F8BD5084F8A950DE
:1044D000C4F8B8909847736D94F87C1428469847B0
:1044E00098F901300022032B40F6B83308934FF0BF
:1044F00008030293D4BF1346022307920692059243
:1045000003920097D8BF1A46514628460495019554
:10451000F769B847736A94F87C1428469847C4F83A
:104520002C03D4F82C2398F90130C4F8B020C4F837
:10453000C0204946009214485246FDF7EBFA4FF46A
:104540007A71124801F035F9104801F070F8637E75
:1045500023B994F89735013384F89735B36A94F802
:104560007C140B4898470020E36D43F00103E3659A
:104570000CB0BDE8F08700BF1C000020A8D40008E4
:104580001802002050D900088FD500087C020020B6
:1045900097060020180E00202DE9F04F8F4C97B0A1
:1045A00094F82A30FF2B00F0FB800BB9C4F83433A9
:1045B0008B4FDFF84C823E4604A84822002101F0D0
:1045C0003CFB4046FFF73BF920B9082285494046AD
:1045D00001F01FFB97F90130032B04DD94F838300C
:1045E0000BB9BB8E2387D4F8240301F0EEF8D4F87E
:1045F0003453A8427BD30023C4F83433637E7A4D0E
:104600001BB194F83033002B6AD0A868D5F80C9011
:1046100001F0DBF881459CBF0023EB60D5F80C90DE
:10462000B9F1000F02D14FF0FF350DE0A86801F09D
:10463000CCF8A9EB00000130F5D0A868D5F80C90B3
:1046400001F0C3F8A9EB000500231946DFF8B49187
:1046500096F901B0019309F1B60ADAB2039239F87A
:10466000022F02920022029840FA02FE1EF0010F71
:1046700015D003EB020C4FEACC0E5AF83CC0BCF14B
:10468000000F0CD004EB0E0C9CF8E8C04CF30300B8
:10469000584504DC4CF3031CDC4580F28580013274
:1046A000102AE0D11033502BD7D1002953D0013933
:1046B000002001F0A1FA16AB184410F8483C3F2B3B
:1046C00084F844300AD80122190903F00F039A40F4
:1046D00038F8113023EA020328F8113000250BE0E6
:1046E000EB60A0E701980130C0B20190D7E7D4F8A1
:1046F000240301F06AF82D1A96F901103B4B96F845
:10470000212003EB8103134493F97B10726838482E
:10471000FEF788FD726896F928103648FEF782FD8C
:10472000637EFBB9B369D4F894201344C4F8C8304D
:10473000F369D4F8A0201344C4F8E0301DBB94F80A
:10474000443004EBC304E43494E80300FFF796FE1E
:1047500017B0BDE8F08F019B002BCDD1264B5B78C5
:104760007B7029E794F82E2096F9011094F87E04C6
:10477000FEF7F6FCB0B13369D4F894201344C4F8C2
:10478000C8307369D5E7E36D294643F010031B4831
:10479000E36501F00EF8194800F049FF0020D7E763
:1047A0000A20D5E70820D3E74FF00C0CD6449EF83A
:1047B00005E00D480CFB0E0EDEF80CE0BEF1000F1C
:1047C00090D116A801F1010E0144039800EB020CF0
:1047D00001F848CC5FFA8EF161E700BF18020020B3
:1047E000180E0020440E00201C000020A8D4000851
:1047F000A4020020B0020020E00D0020B00700203D
:1048000048020020460200207FB54FF000060D4C04
:1048100094F8385365F3C71604AD05F8046D00939A
:1048200013460A462946FFF791FC40B9E36984F82C
:10483000AD0084F8AC00C4F8B430FFF7ADFE04B0AE
:1048400070BD00BF180200207FB51B4D05F5B36099
:1048500000F062FFEB6D23F01003EB65174B1B7844
:104860001B0725D595F8BC4014BBFEF78DFC144BF7
:1048700095F89765988E0136FEF738FF16F0010F10
:1048800014BF042200220F4B04A95A70234664F37C
:1048900047138DF80830234695F8382302A862F3B1
:1048A000C71301F8043D224600942346FFF74EFC4F
:1048B000FFF772FE04B070BD18020020DC0D00206E
:1048C000E00D0020180E0020F8B5974C974D04F12C
:1048D000640000F021FF2B78DF0640F18E80E26D4E
:1048E000560644BF22F04102E26513F0090133D0BD
:1048F00094F8A920022A03D094F8BD20022A2BD1D3
:10490000E26D8B4822F00102E265002284F82E203D
:1049100084F8AC20C4F8B0200122407884F8AD00BF
:1049200094F83C0020BB1ABB11B3180740F1A380D8
:1049300094F8BC10002940F09E8094F8973594F8C4
:10494000BD1084F8C63049B9E26184F82820E36DCF
:1049500023F00103E3650BE00022E1E794F8AC25C6
:104960009A42F4D92B786FF304132B70FFF76CFF86
:104970002B78990719D594F8AC206D4B1AB9597852
:104980001A78914211D9002284F8292084F83C2019
:1049900094F8AD2512B9E2690132E2615B7884F8DE
:1049A000AD30E36D23F00103E36594F8293023B3C0
:1049B000E36D13F0100320D15D4F84F829307E7829
:1049C0003A78B24240F29480082E00F2918001368B
:1049D000F6B2F2077E7008D5564A92F90110012905
:1049E000C4BF01F1FF33DBB25370FFF7D5FD0028E0
:1049F00061D12B7860F304132B70E36D9E0744BFE5
:104A000023F00203E365E66D002E40F083802B78EF
:104A1000D80708D5D4F8B03547481B6898472B7895
:104A200066F300032B702B78190708D5D4F8B0353E
:104A300042489B6898472B786FF3C3032B702B7801
:104A40006FF304132B702B789A0713D594F860300A
:104A5000022B01D1FEF7B2FC2B785B0704D4D4F80B
:104A6000B03531485B6898472B7803F0FB036FF350
:104A700041032B70F8BD2F4A03F0020392F8201077
:104A800094F82820914202D9002B3FF46BAF03F039
:104A9000FF0223B9636A84F82E2001336362002386
:104AA00084F8283094F8AD35002B7FF450AFE369DB
:104AB0000133E3614BE7082384F8A930002384F82D
:104AC0002E3084F83C3084F8AC307B78E26D84F88A
:104AD000AD30184B22F001025B78E26584F8AA3011
:104AE00094F8AD35002B88D1E3690133E36184E7A5
:104AF000134B988EFEF7FAFDE36D84F8AD6023F05A
:104B00000103E365002384F82E3084F83C3084F8F8
:104B1000AC30E5E74FF47A710A4800F04AFE0948E4
:104B200000F085FD8FE700BF18020020DC0D00209B
:104B30001C000020180E0020C0020020D40200201B
:104B4000E00D00207C0200200C21F8B5184C194A19
:104B500094F84430054604EBC30393F8E93004F1BC
:104B6000640601FB032393F90610134B93F900002D
:104B7000FEF773FE114B4FF47A71184490F9707080
:104B8000304600F016FE304600F051FD94F84430F7
:104B90000B4A04EBC303D66BD3F8E4002A4639462C
:104BA000B047E36D002043F00103E365F8BD00BFAB
:104BB000180200201C000020180E0020A8D40008B5
:104BC00050D9000838B50C460B4B51B2024620466E
:104BD0000A4CDB6B04F1640598474FF47A71284660
:104BE00000F0E7FD284600F022FDE36D002043F0D1
:104BF0000103E36538BD00BF50D90008180200204A
:104C000070B5002800F0C3800368002B00F0BF805F
:104C10004368002B00F0BB808368002B00F0B78056
:104C200000225C4C5C4BC4F8481305211A705B4BA6
:104C3000C4F8B00519700A2159600621197240F6AE
:104C4000B831D9604FF47A7119614FF4FA61596142
:104C500041F28831996141F27071D961504903F193
:104C6000240603C986E80300FF210125998504F184
:104C7000E4010846302683F820509D8684F8AC5520
:104C80005A7083F82120DA851A865A86DA86454DCD
:104C9000454B84F86020E26584F897252276C4F8B5
:104CA0002423C4F8342384F83023036003F543330A
:104CB00003F5A073AB420671427100F10800F4D114
:104CC00044250020394B3A4AC1F8003203F5C3139A
:104CD00003F52063934281F8045281F8050201F143
:104CE0000801F1D10A22334B01265A6006221A72BA
:104CF00040F6B832DA604FF4FA625A6141F2883213
:104D00004FF47A759A6141F270721D61DA6183F82D
:104D10002060FEF739FA2849284800F081FC29462E
:104D2000264800F046FD2649264800F079FC264931
:104D3000264800F075FC2649264800F071FC2649FB
:104D4000264800F06DFC00F03EFD254B254DC4F8D3
:104D5000B435254BC4F82803C4F8BC35234B24488C
:104D6000C4F8C435234BC4F8B835234BC4F8C03558
:104D70002B6898476B69984700F038FF3046AB6D59
:104D800084F8D0659847EB6A9847002070BD0320EF
:104D900070BD00BF18020020DC0D0020E00D0020D7
:104DA00038D5000860518B366001C835C0AFD235A8
:104DB000C0FF9536180E0020C94800087C0200206C
:104DC00049480008B0070020E9350008E402002047
:104DD000BD330008900200203D330008600200202F
:104DE0005534000850D90008F13C00088936000805
:104DF000CC07002019340008413600082DE9F341A2
:104E00001D4B06465B780D468DF8073081B31B4F6E
:104E10000DF1070297F83803002197F82E4097F814
:104E20002F80FEF785FC3A7E154B9DF907703B44B9
:104E300052B11B7C6B7044446B78E4B29C4206D93F
:104E4000092002B0BDE8F08193F82030F2E71B1B87
:104E50002B70002239463046FEF782F950B12246C7
:104E600039463046FEF77CF90028E9D00020E8E713
:104E70000320E6E70820E4E7E00D00201802002008
:104E8000A8D4000800286FD003781C2B6ED8DFE868
:104E900003F00F14171B202426282C2F31393E3CF9
:104EA0004044474A4D5053565B585D5F6265680009
:104EB0002F4B93F86030037122E02D4B5B7EFAE7B5
:104EC0002B4B93F83833F6E7294BD3F8743443600F
:104ED00016E0274BD3F87834F9E7264BF7E7264B53
:104EE000F5E7234B93F8D035E5E7214B1B7EE2E74E
:104EF000224BECE7224A031D92E8030083E80300FB
:104F000000207047031D1F4AF6E71F4BDFE71F4BCA
:104F1000DDE71F4B93F82030CDE71D4BDB68D6E76C
:104F20001B4B1B69D3E71A4B5B69D0E7184B9B6996
:104F3000CDE7174BDB69CAE7164B5B78BBE7144B31
:104F4000FBE7144B1B78B6E7114BFBE7084BF1E787
:104F5000074B1B6ABBE7064B1B6CB8E70C4B5B6847
:104F6000B5E70B4B1B7AA6E703207047022070477A
:104F7000180200207405002064050020FC020020B7
:104F80003C0E0020040E00200C0E0020440E0020D9
:104F9000180E0020E00D002038B5044608B90320A3
:104FA00038BD7F4BDA6DD20700F1F68002781C2AFB
:104FB00000F2F480DFE812F01D002F00320036000E
:104FC0003A003E0046004C005300F20056005D00DF
:104FD0007E005F00A000A900AD00B100B500B900DF
:104FE000BD00C600D700CE00DF00E100F200E40003
:104FF000EA000579002483F860501DB1022D05D028
:10500000002038BD674BDB6A9847F9E783F83C40DE
:10501000FEF7D4F9F4E702795A76F1E7027983F8DA
:105020003823EDE74268C3F87424E9E74268C3F81F
:105030007824E5E741680029B1D010225A4800F0F1
:10504000E8FDDDE741680029A9D010225748F6E7BE
:10505000007983F8D005534B9B6D9847D0E70279D0
:105060001A76CDE7524B043494E8030083E803003A
:10507000C6E7504BF7E74068002890D0FEF79FFB4B
:1050800000288CD064682046FEF7D9FB012886D022
:105090000C222146484800F0BCFD0023474A484CFA
:1050A00019195088898D023301400C2B22F8021FF8
:1050B000F6D1A5E7406800283FF471AFFEF77FFB0B
:1050C00000283FF46CAF64682046FEF7B8FB012867
:1050D0003FF465AF0C2221463A4800F09AFD0023C8
:1050E000364A394C19195088898D023301400C2BEE
:1050F00022F8021FF6D183E703795A1E0E2A3FF6E3
:105100004EAF314A82F820307AE742682E4BDA609F
:1051100076E742682C4B1A6172E742682A4B5A6163
:105120006EE74268284B9A616AE74268264BDA616B
:1051300066E790F90430DAB2042A3FF630AF204A2D
:1051400053705DE790F90430DAB2042A3FF627AFD6
:105150001D4AF5E790F90430DAB20A2A3FF61FAF8C
:10516000174A13704CE790F90430DAB20A2A3FF676
:1051700016AF154AF5E74268D9E742681A623FE779
:1051800043680F4A5360104A536039E703790C4A69
:1051900013720D4A137233E7012038BD022038BD67
:1051A0001802002050D90008740500206405002072
:1051B0003C0E0020040E00200C0E002046020020B1
:1051C000E00D0020440E0020180E0020032082B0C5
:1051D00002AB03E9060002B070470320704788B1B4
:1051E0000A49CB6D13F001030ED10A6C43621AB960
:1051F0000864104670471A46936A002BFBD19062F0
:10520000184670470320704701207047180200209D
:10521000B0B10D4AD36DDB0714D4136C2BB1984297
:1052200006D1836A136400238362184670471346CD
:105230009A6A002AF7D09042F9D1826A9A62F2E71C
:10524000032070470120704718020020F7B505467B
:1052500010B9032003B0F0BD4E4CE16D11F0010117
:1052600001D00120F6E70C2204F1BC0000F0E5FCBF
:10527000012384F8BD302B78032B00F28880DFE80F
:1052800003F002506C78E36DDB06EAD4686800280E
:10529000DFD0A9680029DCD0EA68002AD9D02B7CAD
:1052A000002BD6D0012B98BF02233B4E98BF2B7406
:1052B0003378C4F86C2443F00803337000262B7C49
:1052C00002AD84F8AC35334666F34713C4F8801555
:1052D00005F8043DC4F8840584F8BC6084F897653B
:1052E000FDF752FF2D4B94F89775988E0137FEF716
:1052F000FDF917F0010F14BF04223246284B314646
:105300005A70284633463246FFF77EFA0028A1D06D
:105310000021214B84F83C101A7861F3C3021A7003
:1053200098E701201C4A84F8BC00137843F0080376
:10533000137094F82F2094F82E30C2F10F02D2B2DD
:105340009A42E5D91A1884F82E200222234484F8C0
:105350003E0083F8392300207CE702230E4A84F8BC
:10536000BC30137843F008031370A888FFF7ECFBF8
:10537000CCE70323084A84F8BC30137843F00803D1
:1053800013702A7BA968A888FFF71CFCBEE70220DF
:10539000BEE700BF18020020DC0D0020E00D002059
:1053A000180E0020F7B5044610B9032003B0F0BD75
:1053B0002C4EF56D374615F0110550D114222946B3
:1053C00006F1A8008DF8045000F037FC0123227884
:1053D00086F8A9309A4222D003D3032A27D002208C
:1053E000E4E7214A137002229DF8043062F3471368
:1053F0008DF804302179A268A38994F90E0097F8FA
:10540000385315B301A8FFF7FFF920BB2378174ADB
:1054100087F8A830137843F001031370C6E7124BE6
:105420005A70E27B1A709DF804300422DEE70E4ABF
:10543000294613709DF8043043F0E0038DF80430E2
:105440006268238994F90A00D9E7C5B2042DACD863
:10545000074D6870D6E7002387F83C30A6E70120A7
:10546000A4E700BF180200201C000020DC0D002073
:10547000180E0020014B9870704700BF1C000020E0
:105480000122024BD86183F8AD2570471802002035
:105490000022024B83F83023704700BF180200201F
:1054A000014B83F84400704718020020002341603C
:1054B0000380438002817047438810B504895A1CD9
:1054C00092FBF4F304FB132342684380D15410BDD4
:1054D000028803460089511C91FBF0F200FB121276
:1054E0005968885C1A8070470023038043807047A6
:1054F00002884088131A58425841704743880189EE
:105500005A1C92FBF1F301FB132300889BB2C31AD0
:1055100058425841704700000E4B1A6842F480729E
:105520001A6099680C4A0A409A601A6822F08852F8
:1055300022F001121A601A6822F480221A609A6816
:1055400022F47D029A600022DA604FF00062034B81
:105550009A607047003802400CC0FF8800ED00E000
:105560001A4930B58B681A4A03F00C03194C0C2BFE
:1055700022D8DFE803F02121212107212121072161
:1055800021211300144B1360104B9B68C3F30313CA
:105590001C44617A1368CB40136030BD8B68886807
:1055A000C3F38343E55C8B680B4BC0F381506B43C3
:1055B0000130B3FBF0F3E6E74B684FF40041C3F36F
:1055C0004233013301FA03F3DDE700BF0038024044
:1055D0002C000020B9D500080024F4000022064B5E
:1055E00010B51A700446006802F0E4FD2060BDE8C2
:1055F000104002F0C3BC00BFEC070020074B10B402
:105600005A6822B10468091B1160002111720261FD
:10561000012210BC02725860E0E700BFEC070020D6
:105620000023C1600360436003720361704770B57B
:105630000446FCF793FBBCB1204D6A681346BBB926
:1056400061682372216062B1137AABB102F0D2FDBE
:105650006B681968884294BF091A491A23688B42FB
:105660000CD22046FFF7CAFFBDE87040FCF77EBBB6
:105670009C42F9D01B69E2E71168EFE76D682A697F
:1056800022B95B1A23602C612261EDE7106808449F
:10569000834205D25B1A23601068C31A1360F2E7D5
:1056A000116921B91B1A236014612161DCE70E68BE
:1056B00015460A4601463044EAE700BFEC070020E1
:1056C00010B5144C6368FBB102F094FD00216368CF
:1056D0001A68197282428ABF121A19601A6000236E
:1056E000606850B983B1606010BDC2680123006971
:1056F000002AF6D060609047F1E70268002AF4D0F3
:1057000003B16060037A03B110BD0123BDE810400E
:10571000037263E7EC070020F8B5204E0546FCF75E
:105720001DFB7468374604B11DB9BDE8F840FCF7AD
:105730001DBBAC4226D1237AC3B102F05BFD756874
:105740002B6983B1002221682A721A6881420A44B7
:1057500094BF501A101A012218601A72184673600A
:10576000FFF73CFFE1E700237B60DEE72369002BC6
:10577000F9D0216873601A680A441A60D5E723617A
:10578000D3E71C462369002BCFD09D42F9D12B696A
:10579000002BF4D029682361EDE700BFEC0700205F
:1057A00010B50446FFF7B8FF2046BDE81040FFF7EC
:1057B0003EBF38B504460D46FFF7AEFF2560656075
:1057C00038BD02F017BD02F013BD02F029BD02F092
:1057D00021BD08B50B4B5A689AB1127A8AB11A7872
:1057E000042A04D81A780132D2B21A7008BD0022F5
:1057F0001A70FCF700FC012803D1BDE8084002F054
:105800001CBD08BDEC07002070B4467836B90126EF
:10581000FF29467002D070BC06F0B8BB70BC704760
:10582000F0B407789DF81040FF2F9DF814509DF8B4
:10583000186005D0069605950494F0BC06F0D8BB18
:10584000F0BC7047002203784270FF2B01D006F0B5
:1058500029BC70470378FF2B01D006F049BC1846DD
:1058600070470378FF2B01D006F066BC18467047DE
:10587000F8B507460078FF280AD00C468E18B442C7
:1058800007D10020F8BD013D15F0FF0502D1012030
:10589000F8BD0B2521783846FFF7DCFF0028F2D150
:1058A0000134ECE72DE9F8438046894617461E4649
:1058B0000025BD42ACB207D009EB05014046FFF719
:1058C000D0FF01350028F4D0B4FA84F034804009C8
:1058D000BDE8F88300232DE9F04F624AD1F800803B
:1058E000DFF8889185B038FA03F402D105B0BDE83D
:1058F000F08F01249C4018EA0406019400F0A78070
:105900004C6824F0100ABAF1020F16D14FF00F0EB6
:105910004FEAD30C00EB8C0C03F0070BDCF82050A3
:105920004FEA8B0B0EFA0BFE25EA0E0E0D6905FAF7
:105930000BF545EA0E05CCF8205003254FEA430C41
:1059400005FA0CF5ED43D0F800B004F0030E0BEAB5
:10595000050B0EFA0CFE0AF1FF3A4EEA0B0EBAF1F5
:10596000010FC0F800E016D8D0F808E0CF6805EACB
:105970000E0E07FA0CFA4AEA0E0EC0F808E0D0F84C
:1059800004E0019F2EEA0707C4F3001E0EFA03FE8F
:105990004EEA07074760C7683D408F6807FA0CF773
:1059A0003D43C560E50052D54FF00F0ED9F82050A9
:1059B00023F0030745F00105C9F82050D9F820501D
:1059C00007F1804705F00105039507F5803703F0DF
:1059D000030C039D4FEA8C0CBD680EFA0CFE25EA01
:1059E0000E0E214DA84234D005F58065A84232D074
:1059F00005F58065A84230D005F58065A8422ED017
:105A000005F58065A84214BF0525042505FA0CF5A7
:105A100045EA0E05BD60F743156814F4803F0CBFDE
:105A20003D4035431560556814F4003F0CBF3D40C0
:105A300035435560956814F4801F0CBF3D403543D5
:105A40009560D568A40254BF3D403543D56001330D
:105A500049E70025DAE70125D8E70225D6E703253F
:105A6000D4E700BF000401400000024000380240BB
:105A70002DE9F04F00234FF0010C4FF003084FF0D9
:105A80000F0E354CDFF8D89031FA03F201D1BDE8A2
:105A9000F08F0CFA03FA11EA0A0552D05A0008FAFC
:105AA00002F2D2430668DF081640066000EB870763
:105AB00003F00706D7F820B0B6000EFA06F62BEA78
:105AC00006063E62866803F0030716408660466855
:105AD000BF0026EA0A064660C6680EFA07FB324097
