:020000040800F2
:10000000004000206D8B00083D210008B58B0008E2
:100010003F210008412100084321000800000000A2
:10002000000000000000000000000000B58B000888
:100030004521000800000000B58B0008E91F0008FA
:10004000B58B0008B58B0008B58B0008B58B000890
:10005000B58B0008B58B0008E38F0008F38F00080C
:10006000039000081390000823900008B58B000847
:10007000B58B0008B58B0008B58B0008B58B000860
:10008000B58B0008B58B0008B58B0008B58B000850
:10009000B58B0008B58B0008B58B000833900008BD
:1000A00000000000B58B0008B58B0008B58B000878
:1000B000B58B0008B58B0008B58B0008B58B000820
:1000C000B58B0008B58B0008B58B0008B58B000810
:1000D000B58B000845C10008B58B0008B58B00083A
:1000E0005F90000845840008B58B0008B58B0008B8
:1000F000B58B0008000000000000000000000000B8
:1001000000000000000000000000000000000000EF
:1001100000000000000000000000000000000000DF
:1001200000000000000000000000000000000000CF
:1001300000000000000000005FF808F110B5054C59
:10014000237833B9044B13B10448AFF30080012383
:10015000237010BDE800002000000000DCD800087B
:100160000C4B43B10C4810B50C49AFF300800C4860
:10017000036823B910BD0A48036833B97047094BB7
:10018000002BF7D0BDE810401847064B002BF5D0E8
:10019000184700BF00000000DCD80008EC00002079
:1001A000E400002000000000002310B5074951F8CA
:1001B0003340DA00844203D80A449468A04203D34F
:1001C0000133152BF3D1FEE7107910BDC8D200081A
:1001D000054B93F8DD202AB993F8082112B90122C2
:1001E00083F80821704700BF3C0B0020014B93F8B7
:1001F000DC0070473C0B002037B500240D4D234632
:1002000001221D212846019400940AF0FFF80120E4
:1002100008F0B4FA012328460193009423462246AD
:100220001D210AF0F3F8062003B0BDE8304008F0C5
:10023000A5BA00BF3C0B002070B5054616460C461B
:100240000D4800210AF0FCF845F080010B4802F04F
:100250003DFE013E651E3444084EA54205D10121F4
:10026000BDE8704004480AF0EBB815F8011F3046AD
:1002700002F02CFEF1E700BF0C0C0020900B0020D8
:1002800007B502AB03F8011D01221946FFF7D4FFA1
:1002900003B05DF804FB124B10B5C3F8E0000CF09E
:1002A00031FA0DA3D3E900230CF0CCFB0CF062FD76
:1002B0000446C0F307410620FFF7E2FFC4F307211D
:1002C0000720FFF7DDFFE1B20820BDE81040FFF78F
:1002D000D7BF00BFAFF300800000000080844E4015
:1002E0003C0B002070B5054616460C460D48002113
:1002F0000AF0A6F805F07F010B4802F0E7FD013E89
:10030000651E3444084EA54205D10121BDE8704068
:1003100004480AF095B80021304602F0D7FD05F8F0
:10032000010FF0E70C0C0020900B002007B5012214
:100330000DF10701FFF7D6FF9DF8070003B05DF848
:1003400004FB38B50920FFF7F1FF05460620FFF74B
:10035000EDFF04460720FFF7E9FF000240EA0444EE
:100360000820FFF7E3FF20430CF0CCF91AA3D3E9F0
:1003700000230CF03DFA0CF0FDFC0021044609209E
:10038000FFF77EFF3B20FFF7D1FF40F04001C9B2ED
:100390003B20FFF775FF3B20FFF7C8FF8206FAD42A
:1003A0000F48FFF778FF3B20FFF7C0FF40F0400108
:1003B000C9B23B20FFF764FF3B20FFF7B7FF83067E
:1003C000FAD429460920FFF75BFF2046BDE83840F4
:1003D000FFF761BFAFF300800000000080844E4053
:1003E00000A1BC332DE9F84F884620B101285AD02E
:1003F0000020BDE8F88F704C2720B4F8F850FFF7C4
:1004000095FF20F0F800013028440CF08BF90B46E2
:1004100094F8FA100246002000293FD167490CF0F9
:1004200035F8064630200F46FFF780FF30F0F9031D
:1004300032463B460CBF0021604900200CF026F8F4
:10044000064640460F460CF06DF902460B46304614
:1004500039460CF01BF80B4694F8FC1002460020BD
:10046000F1B900210CF012F80022554B0CF0C0F944
:100470000646D4F8F4000F460CF044F902460B4649
:10048000304639460CF0DEFA00224E4B0CF0B0F943
:100490000BF0A6FF0CF06EFCBDE8F88F0021BEE764
:1004A0004FF08041DEE7444CD4F81C31073B022B6F
:1004B00078D8454A02EBC303D3E92C670120D4F86E
:1004C0002051A8400CF02EF902460B463046394622
:1004D0000CF0B8FA02460B46002038490CF0B2FA8C
:1004E00006460F46B4F826010CF01CF90022374BE3
:1004F0000BF0CCFF32463B460CF07AF994F82831E9
:1005000082468B4694F82A01A900002BC1F11C01F8
:1005100001EB001114BF1420002001EBC801081AE0
:100520000CF0F0F894F824318046002B14BF022020
:100530000020281A800089460CF0E4F802460B4699
:10054000404649460CF07EFA0BF02EFE8046894666
:1005500094F8250104300CF0E5F842464B460CF0C7
:1005600047F90022002304460D460CF0D1FBE0B110
:100570000022134B204629460BF088FF32463B46AB
:100580000CF036F952465B460BF080FF00220D4B13
:100590000CF02EF906A3D3E900230BF077FF0BF044
:1005A00093FE77E70026002788E700200449E5E767
:1005B0002B8716D9CEF7EF3F3C0B00200000F03F11
:1005C0000000204000408F40C8D2000800001140C9
:1005D00008B520B101280AD04FF0FF3008BD112026
:1005E000FFF7A4FEC0F34700404200B208BD074B2E
:1005F0001B20D3F8E020064B9A4203D9FFF796FE62
:100600009D38F2E7FFF792FEA438EEE73C0B00209E
:1006100040DD4A1F10B5044668B9012008F00EFA03
:100620000120FFF783FE00F0F80121430120BDE81F
:100630001040FFF725BE002008F000FA204608F021
:100640000BFAEDE708B5074805F01EF8064805F077
:100650001BF80020FFF7DEFF0022044B83F8DC20AC
:1006600008BD00BF7C0C0020140B00203C0B0020B8
:1006700008B5074805F008F8064805F005F8012018
:10068000FFF7C8FF0022044B83F8DC2008BD00BF41
:100690007C0C0020140B00203C0B0020F8B5964C7D
:1006A000074694F8DD501DB1012D4FD0002627E0FC
:1006B000402094F8FE60FFF739FE00F0030141F09E
:1006C0000C014020FFF7DCFD4120FFF72FFE60F01A
:1006D0003E01C9B24120FFF7D3FD3520FFF726FECA
:1006E00000F03F0084F816011E210D20FFF7C8FD21
:1006F00084F8085184F80951A4F81451A4F812514F
:100700004FF4807200217D480BF046FD012384F8F0
:10071000DC3037B17A48394605F003F8784804F000
:100720003EFF94F8DD30002B40F0C5800520FFF738
:1007300071FF002E40F0C780D4F80411714804F016
:10074000F0FFBDE8F8406F4804F029BF94F82D3160
:1007500033203BB3FFF7EAFD40F04101C9B233203B
:10076000FFF78EFD19213B20FFF78AFDD4F81C31DD
:100770003120082B00F28E80FFF7D8FD00F07F01BA
:100780003120FFF77DFD00213020FFF779FDD4F8FF
:100790001C31082B22D8DFE803F0103C4854606C71
:1007A00078787800FFF7C2FD00F0BE0141F001014A
:1007B0003320FFF765FD1D21D5E748212F20FFF7E6
:1007C0005FFDD4F8E0000BF09DFF3FA3D3E90023C9
:1007D0000BF05CFE0CF0CEFAFFF75DFD94F82B31C8
:1007E00094F82E61002B5CD01D211120FFF748FDED
:1007F0004020FFF79BFD00F033014020FFF740FD54
:1008000000210F20FFF73CFD00210D20FFF738FDF0
:1008100076E744212F20FFF733FDD4F8E0000BF0FA
:1008200071FF2BA3D3E90023D2E744212F20FFF748
:1008300027FDD4F8E0000BF065FF27A3D3E90023E0
:10084000C6E744212F20FFF71BFDD4F8E0000BF092
:1008500059FF23A3D3E90023BAE744212F20FFF750
:100860000FFDD4F8E0000BF04DFF1FA3D3E90023E8
:10087000AEE744212F20FFF703FDD4F8E0000BF092
:1008800041FF1BA3D3E90023A2E740212F20FFF75C
:10089000F7FCA3E7FFF74AFD60F07F01C9B2312002
:1008A000F5E71F211120FFF7EBFC4020FFF73EFD8D
:1008B00000F03F01A1E726B10520BDE8F840FFF7B1
:1008C000A9BE0620F9E7F8BD000000000082BE4086
:1008D00000000000005AC440000000000082CE402A
:1008E000000000008057D440000000008084DE40FB
:1008F00000000000C058E4403C0B00200401002030
:100900007C0C0020280B002010B5254C0146254802
:1009100004F007FF94F8DD3063B1012B24D00223EB
:10092000204884F8DC3004F03AFEBDE81040032093
:10093000FFF770BE4020FFF7F9FC00F0030141F023
:1009400010014020FFF79CFC4120FFF7EFFC00F076
:100950003E014120FFF794FC3520FFF7E7FC00F053
:100960003F0084F81601DAE794F82B3173B1F521D2
:100970001120FFF785FC4020FFF7D8FC00F0330181
:1009800041F040014020FFF77BFCC8E7F721112030
:10099000FFF776FC4020FFF7C9FC00F03F01EFE7CE
:1009A0003C0B0020140B002010B50D4C94F8DD30EA
:1009B000012B13D1FA211120FFF762FC4020FFF731
:1009C000B5FC00F0FC014020FFF75AFC0323072090
:1009D00084F8DC30BDE81040FFF71CBE10BD00BF3E
:1009E0003C0B002010B504460120FFF79FFC10F0DF
:1009F000800F14BF01220022184B83F8DD2093F8EA
:100A0000DD20A24228D0012C83F8DD4013D0FFF76F
:100A100019FE0120FFF78AFC00F07F010120FFF79B
:100A20002FFC00214020FFF72BFC3021BDE81040B7
:100A30004120FFF725BCFFF705FE2046FFF776FCB7
:100A400060F07F01C9B22046FFF71AFC0021402068
:100A5000FFF716FC0021E9E710BD00BF3C0B0020AA
:100A600038B5174B1749C3F80001174804F090FD3B
:100A70001449164804F08CFD1249154804F088FD0D
:100A8000FFF7BAFBFFF75DFC0020FFF7C3FD11483D
:100A900007F0C8FE0024104D285DFFF7A3FF2B19B7
:100AA000997858780334FFF7EBFB302CF4D1002011
:100AB000FFF798FF0022094B83F8DC2038BD00BF08
:100AC0000401002025170008140B00207C0C0020D6
:100AD000280B00200000002090D300083C0B0020D1
:100AE00070B50E4605461446FFF77CFF3046FFF70B
:100AF000D2FB0520FFF78EFD012007F03FFE2846C0
:100B0000FFF766FD0546FFF79DFDA542CCBF00201F
:100B1000012070BD38B500240120FFF763FFFF21DD
:100B20001120FFF7ADFB0520FFF774FD25460120DE
:100B300007F024FE2C20FFF7F9FB00F00100A04095
:100B40000134202C45EA0005F1D1FFF77BFD284652
:100B500038BD2DE9F04F044689B00093BDF8503000
:100B60008A4604939DF864309DF860100293154600
:100B70009DF86C309DF8682005930692DDF848904A
:100B8000BDF84C709DF854809DF858B09DF85C609D
:100B90000791FFF727FF059B069A34B1012C0799AF
:100BA00000F0878009B0BDE8F08FA54C284684F896
:100BB000FD2084F8FE30C4F8ECA0C4F8F450C4F86A
:100BC000F09084F8FA8084F8FBB084F8FC60A4F814
:100BD000F8700BF097FDCDE9000102460B460020AE
:100BE00098490BF02FFF0022974B0BF001FECDE947
:100BF000020104980BF096FD02460B46DDE9020166
:100C00000BF0F6FD0022914B0BF0F2FD0CF0B2F868
:100C1000DDE90023C4F8040187A1D1E900010BF04C
:100C200011FF0CF0A7F884B2210A0220FFF728FB7D
:100C3000E1B20320FFF724FB5046FFF7B5FA014667
:100C40001220FFF71DFB4846FFF7AEFA01461320BE
:100C5000FFF716FB390A2520FFF712FBF9B2262011
:100C6000FFF70EFBB8F1000F21D059463220FFF7F5
:100C700007FB3020FFF75AFBB8F1000F14BF00212B
:100C80006FF07F0100F06F0040EA06100143C9B227
:100C90003020FFF7F5FA3120FFF748FB40F0400124
:100CA0003120C9B209B0BDE8F04FFFF7E9BAFF2122
:100CB000DCE7BAF1020F00D9FEE7614C9DF80000B5
:100CC00084F82B119DF808100AF107090C2DC4F8BF
:100CD0001C91C4F8205184F82501A4F8267184F8E9
:100CE000288184F829B184F82A6184F82C1184F8C9
:100CF0002D2184F82E3100F29880052D40F281805C
:100D0000B9F1070F76D1A5F10B03012B77D8012399
:100D10001D2084F82431FFF709FB009B1D2048EAC1
:100D2000430141EA0911C9B2FFF7AAFA1E20FFF7F1
:100D3000FDFA049B00F00800C3F3012141EA86019B
:100D4000014341EA0511C9B21E20FFF799FA262096
:100D5000FFF7ECFA94F8241120F0080040EAC101F2
:100D6000C9B22620FFF78CFA9DF810101F20FFF75C
:100D700087FA390A2020FFF783FAF9B22120FFF71A
:100D80007FFAB8F1000F03D059462220FFF778FA16
:100D900094F82B316BB14420FFF7C8FA60F07F0163
:100DA000C9B24420FFF76CFA94F82C112420FFF705
:100DB00067FAB9F1090F2AD1D4F8E020244B0221B7
:100DC0009A424FF036001ED9FFF75AFA64213A20B2
:100DD000FFF756FA062D4FF031001BD1FFF7A6FAA8
:100DE00000F0F80141F005013120FFF749FA0C212C
:100DF000372057E7B9F1080F01D10C2D87D0002318
:100E000086E70625FBE7FFF73BFA7F21DFE70321B3
:100E10003620DDE7FFF78AFA00F0F80141F0030120
:100E20003120FFF72DFA0A21E2E7BAF1020F4FF065
:100E30000C05E4D06BE700BF0000000080847E4119
:100E40003C0B00200000F03F0000204000408F409D
:100E500040DD4A1F2DE9F04F8946834687B098460A
:100E60009DF854309DF85C1001939DF85830059220
:100E70000293189B04910393109C9DF844A0BDF825
:100E800048709DF84C609DF85050FFF7ABFD484608
:100E900007F048FD039B0499059ABBF1000F05D0AC
:100EA000BBF1010F65D007B0BDE8F08F8048C0F8F6
:100EB000E820C0F8EC80C0F8F44080F8FC50C0F89E
:100EC000003180F8E490A0F8F87080F8FA6080F8BB
:100ED000FD1010460BF016FC71A3D3E900230BF0B4
:100EE000B1FD0BF047FF1FFA80F84FEA18210420EC
:100EF000FFF7C6F95FFA88F10520FFF7C1F9204630
:100F00000BF000FC02460B4667A1D1E900010BF093
:100F100099FD0BF02FFF84B2210A0220FFF7B0F9F0
:100F2000E1B20320FFF7ACF9390A2520FFF7A8F951
:100F3000F9B22620FFF7A4F93020FFF7F7F9002EC9
:100F400014BF00216FF07F0100F06F0040EA05152B
:100F50002943C9B23020FFF793F93120FFF7E6F9B2
:100F600040F040013120C9B207B0BDE8F04FFFF7B3
:100F700087B94F4AB8F1020F82F81891914600D90B
:100F8000FEE708F1070BC2F81CB1C2F8204182F855
:100F900025A1A2F8267182F828619DF804200C2C66
:100FA00089F82B219DF8082089F82A5189F82C21ED
:100FB00089F82D11C9F830316CD8052C5DD9BBF1F9
:100FC000070F53D1A4F10B03012B54D8012389F847
:100FD0002431019B6BB14420FFF7A8F960F07F0139
:100FE000C9B24420FFF74CF999F82C112420FFF7DF
:100FF00047F91D2046EA4A06FFF798F946EA0B1121
:10100000C9B21D20FFF73CF91E20FFF78FF9AD0094
:1010100000F00B0045EA04150543E9B21E20FFF776
:101020002FF92620FFF782F999F8241120F0080003
:1010300040EAC101C9B22620FFF722F9390A20206F
:10104000FFF71EF92120F9B2FFF71AF9062C4FF02D
:10105000310014D1FFF76AF900F0F80141F0050101
:101060003120FFF70DF90C2137207DE7BBF1080F88
:1010700001D10C2CAAD00023A9E70624FBE7FFF737
:1010800055F900F0F80141F003013120FFF7F8F8BD
:101090000A21E9E7B8F1020F4FF00C04EBD095E715
:1010A0000000000080844E400000000080847E41EB
:1010B0003C0B002070B506468AB010460C460BF07B
:1010C00031FB00221E4B0BF093FB0BF053FE054649
:1010D0003046FFF7E0F80522002302924FF49652C3
:1010E00007930693059304930393019318462146AF
:1010F000009208951A46FFF7ADFE3120FFF716F96A
:1011000000F0BF013120FFF7BBF80E4CF02140206A
:10111000FFF7B6F8A0214120FFF7B2F82946204694
:1011200004F0FFFA0222084B204683F8DC2004F08A
:1011300036FA03200AB0BDE87040FFF76BBA00BF73
:1011400000408F40140B00203C0B0020304B70B54A
:1011500093F8DC101C46012902D002294BD070BD47
:1011600093F8DD2012B1012A2FD070BD1B6C0BB992
:1011700084F80811B4F80851012D44D1254804F031
:1011800083FA112084F80951FFF7D0F84008404253
:1011900084F80A011B20FFF7C9F805461C20FFF759
:1011A000C5F840EA05200BF0BDFA17A3D3E90023E8
:1011B0000BF01EFB0BF0B6FDC4F80C010C20FFF782
:1011C000B5F8400984F8100170BD93F82B31D3B104
:1011D00002211220FFF754F80F4BD3F8003193B1DE
:1011E0005C6984B11C20FFF7A1F82346BDE870407C
:1011F00000F03F00184793F8DD20012A03D193F84F
:101200002B31002BE5D170BD0000000080844E40E2
:101210003C0B0020280B002004010020124B70B56D
:1012200093F8DD50012D1ED11220FFF77FF810F04A
:1012300001060E4C0CD005211220FFF721F8D4F83E
:10124000003183B19B6973B12846BDE870401847EF
:1012500004211220FFF714F8D4F800311BB19B6968
:101260000BB13046F1E770BD3C0B002004010020BB
:101270000A4601460020FEF7DFBF37B53C4C054665
:1012800094F8DD308DF807101BB1012B34D000200D
:1012900022E0A4F814319DF8071094F8FA30A4F86D
:1012A0001211EBB901210DF10700FFF7E1FF9DF8E5
:1012B0000720531E3F2B17D884F81721284694F88F
:1012C0001711FFF7D5FFB4F8142194F81731D4F8AB
:1012D00000011344A4F81431FFF716FB03B030BD2E
:1012E0003220FEF7CDFFE2E72946224804F049FC10
:1012F000202384F81731E1E794F82D31332063B3CC
:10130000FFF714F800F0BE013320FEF7B9FF1921F2
:101310003B20FEF7B5FF9DF80710222084F83C1112
:10132000FEF7AEFF00210E20FEF7AAFF00210D20E0
:10133000FEF7A6FF0120FEF7F9FF30F0F80304D115
:10134000FFF796F9012007F019FA28469DF80710D3
:10135000FFF78EFFD4F83001BEE7FEF7E7FF00F09D
:10136000BE0141F001013320FEF78AFF1D21CFE7C6
:101370003C0B0020040100200A4601460020FEF735
:10138000B1BF002373B58D4E8DF8073096F8DC3071
:101390003446012B04D0022B00F0F98002B070BD5E
:1013A00096F8DD3033B3012BF8D140211220FEF73F
:1013B00067FF1220FEF7BAFF8DF807009DF807308F
:1013C0007F4D13F0200F00F09D8020211220FEF7AA
:1013D00057FF96F82E310BB986F8DC30794804F0C7
:1013E00053F9D5F80031002BD8D01B69002BD5D08C
:1013F0009847D3E796F8FC30714DC3B33F20FEF712
:1014000095FF8DF807009DF807309B072FD40B211F
:101410003E20FEF735FF10213F20FEF731FF6948DF
:1014200004F032F996F8FE60A6B9674804F02CF98A
:1014300084F8DC60D5F8003113B11B6903B198471B
:10144000002384F8083184F80931A4F81431A4F891
:101450001231A3E70D20FEF769FF40F04001C9B249
:101460000D20FEF70DFF584804F099F8E2E7B4F8B4
:101470001211002936D1B4F814319BBB94F8FA301C
:1014800053BB01215148FFF777FFB4F8140194F8DA
:101490001211091AC9B22844FFF76EFFB4F81231CD
:1014A0004848A4F8143104F0EFF894F8FE30E3B99A
:1014B000454884F8DC3004F0E7F8D5F80031002B1B
:1014C000BED09D68002DBBD0002394F90A21B4F84A
:1014D00012113B48A847B3E73220FEF727FFA4F8D4
:1014E0001201D2E7B4F81401D3E70D20FEF71EFF76
:1014F00040F04001C9B20D20FEF7C2FE324804F0B0
:101500004EF8DAE71920FEF711FF40B2002886F8FE
:101510003801BFBF40428010404246B2A8BF86108B
:101520001A20FEF703FF002ED4F8E010284A40F3FB
:101530000B132ADA914230448CBF9D38A4381844EA
:10154000A4F83A011320FEF7F1FE014684F83C01AD
:101550001B48FFF711FF94F82E310BB984F8DC30EB
:10156000184804F091F8D5F80031002B3FF416AF7D
:101570009D68002D3FF412AF94F93831B4F93A2147
:1015800094F83C110E48A84708E79142D4E7114867
:1015900004F07AF896F8DD30012B03D108211220EF
:1015A000FEF76EFE002384F8DC30054BD3F80031E3
:1015B000002B3FF4F3AE1B6818E700BF3C0B002084
:1015C000040100207C0C0020280B00204E0C002081
:1015D00040DD4A1F140B002070B5384C94F8DC1025
:1015E0002546012902D0022948D070BD94F8DD308B
:1015F00013B1012B2FD070BDB4F812314BB9B4F830
:10160000143133B994F8FA30C3B904F58970FFF78F
:10161000B3FEB5F81231B5F8142195F816119B1ADE
:101620008B42274810DD1044FFF7A6FE95F81631CF
:10163000B5F814211344A5F8143170BD3220FEF71B
:1016400075FEA4F81201E4E7D9B21044FFF794FE46
:10165000B5F81231EFE71B4804F016F8802112208C
:10166000FEF70EFE002384F8DC30154BD3F8003172
:10167000DBB1DB68CBB1BDE87040184794F8DD30D2
:101680009BB9B4F81231B4F8142194F817119B1ACD
:101690008B420B480ADD1044FFF7EAFD94F817313E
:1016A000B4F814211344A4F8143170BDD9B2104415
:1016B000FFF7DEFDB4F81231F5E700BF3C0B002068
:1016C000040100207C0C002038B505460C46FFF7CD
:1016D00089F915B1012D0AD038BD074B93F8FA30BE
:1016E00043B921463220BDE83840FEF7C9BD214646
:1016F0002320F8E738BD00BF3C0B002010B504469E
:101700000120FFF76FF9064B83F834412CB13421E7
:10171000BDE810403920FEF7B3BD1221F8E700BF45
:101720003C0B002070B52F4C94F8DC302546012B83
:1017300002D0022B31D070BD94F8DD30F3B90B210B
:101740003E2084F8083184F80931A4F81431A4F853
:101750001231FEF795FD10213F20FEF791FD94F820
:10176000FE30A3B10D20FEF7E1FD40F04001C9B20B
:101770000D20FEF785FD1C4803F011FF1B4BD3F82D
:10178000003173B3DB6863B3BDE870401847164897
:1017900084F8DC3003F078FFF0E7FEF72DFDFEF76C
:1017A000D0FD0020FEF736FF0024114E305DFFF71C
:1017B00019F93319997858780334FEF761FD302C04
:1017C000F4D10020FFF70EF995F83401FFF796FFEA
:1017D000002385F8DC30054BD3F800310BB15B6892
:1017E000D1E770BD3C0B0020280B00200401002035
:1017F00090D30008704700BF07B502A901F8010D9A
:10180000FF230122024800F0D8FE03B05DF804FB7C
:10181000880E0020017001207047034610B5013981
:1018200011F8012F1C1A0AB9204610BD03F8012B2C
:10183000F6E7092B70B502F1FF3205460E461C464D
:1018400008D80146002AA1EB050009DD01F8016B6B
:10185000013AF7E70A23B4FBF3F3FFF7EAFF29188D
:101860000A22B4FBF2F302FB134330330B70013056
:1018700070BDF8B583EAE374A4EBE374092C164653
:1018800005460F4602F1FF3212D9002B4FF00A0332
:10189000B4FBF3F3B8BF5B42FFF7EBFF2A180A2152
:1018A000B4FBF1F301FB1343303313700130F8BD87
:1018B000002BB8BFB21E111A294400290BDC002BE3
:1018C000B8BF2D2322EAE27005EB0002BEBF2B5405
:1018D00001320130E3E700F8017BECE7F7B5089C43
:1018E00005465FEA141E0F461E4602F1FF3208D17C
:1018F0000146002AA1EB050008DD01F8017B013A51
:10190000F7E7CDF800E0FFF7E9FF291804F00F032F
:10191000092B04D8303301300B7003B0F0BD0EB189
:101920003733F8E75733F6E72DE9F3410E4604461F
:1019300008B10021017000251178002965D1AE425F
:101940004FF000036AD92370284602B0BDE8F08149
:101950005178252902D1217002325CE0302916BF6E
:10196000501C901C2021002207788046A7F1300EE1
:10197000BEF1090F00F1010010D9501986423CBF99
:10198000721BD2B2692F1DD010D8632F38D0642FAC
:1019900018D0582F2FD04FF0FF35D5E702EB820239
:1019A00007EB4202303A02F0FF02DDE7752F14D058
:1019B000782F18D0732FEED1196820461F1DFFF71E
:1019C0002CFF04E01F1D20461B68FFF752FF3B461B
:1019D00008F1010204440544AEE71F1D20461B68C0
:1019E000FFF727FFF3E71F1D1B6800930023204626
:1019F000FFF774FFEBE71F1D1B6800930123F6E759
:101A00001A68012022700433E2E7B54297D22529F3
:101A10009ED001322170013501348DE704F8013C7C
:101A2000013D91E70CB407B504AB53F8042B0193C7
:101A3000FFF77AFF03B05DF804EB02B0704713467E
:101A40000A466421FFF770BF0EB403B503AA52F82B
:101A5000041B0192FFF7F3FF02B05DF804EB03B043
:101A60007047094B10B51B6804469A688A4202D039
:101A7000DB68994204D1E0B2FFF7BEFE204610BDFC
:101A80004FF0FF34FAE700BF7800002070B505463C
:101A90000E460446601B14F8013B2BB11846314634
:101AA000FFF7DFFF431CF5D170BDF0B5A3B00646CC
:101AB0008E466C466F46104B03F1200C2546186885
:101AC0005968083303C563452C46F7D11868714639
:101AD000286009A8FFF7B3FF632806DD074B3846E7
:101AE0001B68D968FFF7D2FFFEE7314609A8FFF768
:101AF000CDFF23B0F0BD00BFC0D3000878000020A8
:101B0000034B0A461B6801469868FFF7CEBF00BF2B
:101B1000780000200FB407B504A951F8040B019117
:101B2000FFF7EEFF03B05DF804EB04B070470EB4AE
:101B300003B503AA52F8041B0192FFF7B6FF02B0E7
:101B40005DF804EB03B07047024B1B689968FFF720
:101B50009DBF00BF78000020044B9A6942F080527C
:101B60009A619A6922F080529A6170470038024067
:101B70004FF4807393FAA3F3B3FA83F301229B002B
:101B800003F1844303F560231A6070474FF48073B8
:101B900093FAA3F3B3FA83F300229B0003F1844387
:101BA00003F560231A607047184A0168136823F030
:101BB000E0030B431360164B5A6822F480325A60DC
:101BC0001A6822F480321A609A6822F480329A608D
:101BD000DA6822F48032DA604268D10342BF1968C1
:101BE00041F480311960900342BF596841F480315B
:101BF0005960D10742BF996841F4803199609207DA
:101C000042BFDA6842F48032DA6070470070004008
:101C100000040140102393FAA3F3B3FA83F30122E3
:101C20009B0003F1844303F560231A60704710237F
:101C300093FAA3F3B3FA83F300229B0003F18443E6
:101C400003F560231A60704790FAA0F00122B0FA01
:101C500080F0024B43F82020704700BF80000E4206
:101C600090FAA0F00022B0FA80F0024B43F8202056
:101C7000704700BF80000E42094A0129136823F013
:101C8000030340EA03001060064A136923F00403CB
:101C9000136101D130BF704740BF20BF20BF7047E4
:101CA0000070004000ED00E00B4A0129136823F0AA
:101CB000030340EA0300094B10601A6942F0040272
:101CC0001A6105D130BF1A6922F004021A61704707
:101CD00040BF20BF20BFF6E70070004000ED00E0ED
:101CE000054A136843F002031360044A136943F082
:101CF0000403136130BF70470070004000ED00E046
:101D0000024A136943F002031361704700ED00E0DB
:101D1000024A136923F002031361704700ED00E0EB
:101D2000024A136943F010031361704700ED00E0AD
:101D3000024A136923F010031361704700ED00E0BD
:101D4000704710B5044C6369DB0304D5FFF7F8FF57
:101D50004FF48033636110BD0004014072B6024A43
:101D6000137801331370704708020020034A137878
:101D7000013BDBB2137003B962B670470802002062
:101D8000F0B54B4D9BB06C78002C7CD100F05EF927
:101D9000484B494F5A6A012642F080525A625B6AA8
:101DA0000DA803F080530593059B3B6823F4C053B3
:101DB00043F400633B6006230E960D930F96169630
:101DC00003F078FF0F23314608A8089309940A947A
:101DD0000B940C9404F02EFB4FF4803306A8079369
:101DE000069606F0E9FE04F0F3FB4FF47A73B0FBBD
:101DF000F3F008F04DFA042008F0F6FA032008F09A
:101E0000D5F9224621464FF0FF3008F0E1F90A23C8
:101E100009222146294803F0AFFC23464FF4E13262
:101E20000221264802940194009403F0B1FC06F0CC
:101E300001F839682248FFF76DFE234603221C2172
:101E40000DA80194009408F0E1FA234603221D2115
:101E50000DA80194009408F0D9FA234603221E210C
:101E60000DA80194009408F0D1FA234603221F2103
:101E70000DA80194009408F0C9FA00F03FF900F0B1
:101E80002DF900F04BF919210E4808F043FD4FF0F1
:101E9000FF3306220093072105230B4800F082FF41
:101EA00006F070FC6B780BB901236B701BB0F0BDB2
:101EB000080200200038024000700040200D002081
:101EC000E4D30008580D0020900B002008B5054809
:101ED00008F030FD044800F003FFBDE8084006F0BC
:101EE000D1BC00BF580D0020900B0020034A044BCA
:101EF00010681B6843401069584070475400F81F31
:101F00005000F81F1049114A0B6810B5146823449B
:101F10001B0EC37114680B6823441B0C8371146877
:101F20000B6823441B0A437112680B681344037146
:101F3000074BDA78C2705A8882701A68120A4270A7
:101F40001B68037010BD00BF5000F81F6400F81F2D
:101F50005400F81F70B5184C0321204608F0F0FC1F
:101F600011210546204608F0EBFC144B0646188864
:101F70000AF0D6FF12490BF02BF8044630460AF05F
:101F8000CFFF014620460BF0D7F80BF071F980B275
:101F90000AF0CAFF044628460AF0C2FF09490BF0BE
:101FA000CBF8014620460BF013F80BF061F980B234
:101FB000400080B270BD00BF580D00207800F81FAF
:101FC00000404E4500F07F45014B1888704700BF28
:101FD0001800002008B5FFF7BDFF024B1880002055
:101FE00008BD00BF1800002008B500F03AF8BDE8B1
:101FF000084008F006BA0020704700BF70477047DD
:1020000010B54FF0FF320024054B9A619C615A6174
:102010005C611A611C61FFF7F2FF204610BD00BF32
:1020200000380240084B10B5044618684FF47A7324
:10203000B0FBF3F008F02CF9002221464FF0FF30FE
:1020400008F0C6F8002010BD2C00002008B50320C1
:1020500008F0ACF80020FFF7E5FFFFF7CFFF002006
:1020600008BD024A13680133136070477C0D0020DD
:10207000014B1868704700BF7C0D002013B501901C
:10208000FFF7F6FF0446FFF7F3FF019B001B9842A2
:10209000F9D302B010BD034A136823F002031360A2
:1020A000704700BF10E000E0024A136843F00203EB
:1020B0001360704710E000E04FF081707047024BF2
:1020C0001868000C704700BF002004E0024B18683D
:1020D000C0F30B00704700BF002004E0024A5368C1
:1020E00043F0010353607047002004E0024A536844
:1020F00023F0010353607047002004E0024A536854
:1021000043F0020353607047002004E0024A536822
:1021100023F0020353607047002004E0024A536832
:1021200043F0040353607047002004E0024A536800
:1021300023F0040353607047002004E07047FEE77B
:10214000FEE7FEE7704700002DE9F047814605688D
:10215000C2682B69C16923F4405313432B61836820
:102160000069EA680343D9F8140022F416420343D5
:1021700022F00C020B431343EB606B69D9F8182073
:1021800023F440731343B1F5004F6B617E4B7FD155
:102190009D424FF0190447D104F038FA04FB00F3D4
:1021A000D9F804704FF064087F00B3FBF7F3B3FB7A
:1021B000F8F31F0104F02AFA6043D9F804305B00F9
:1021C000B0FBF3F604F022FA6043D9F804305B0068
:1021D000B0FBF3F3B3FBF8F308FB1363DB0032331C
:1021E000B3FBF8F35B0003F4F87604F00FFA6043F6
:1021F000D9F804205200B0FBF2FA04F007FA604369
:10220000D9F804305B00B0FBF3F3B3FBF8F308FB41
:1022100013A3DB003233B3FBF8F303F007033B44B3
:102220003344AB60BDE8F08704F0D8F904FB00F359
:10223000D9F804704FF064087F00B3FBF7F3B3FBE9
:10224000F8F31F0104F0CAF96043D9F804305B00C9
:10225000B0FBF3F604F0C2F96043D9F804305B0038
:10226000B0FBF3F3B3FBF8F308FB1363DB0032338B
:10227000B3FBF8F35B0003F4F87604F0AFF96043C6
:10228000D9F804205200B0FBF2FA04F0A7F9B6E73F
:102290009D424FF0190443D104F0B8F904FB00F358
:1022A000D9F804604FF06408B600B3FBF6F3B3FB53
:1022B000F8F31E0104F0AAF96043D9F804309B003A
:1022C000B0FBF3F704F0A2F96043D9F804309B00A7
:1022D000B0FBF3F3B3FBF8F308FB13731B013233CA
:1022E000B3FBF8F303F0F00704F090F96043D9F87A
:1022F00004209200B0FBF2FA04F088F96043D9F8A8
:1023000004309B00B0FBF3F3B3FBF8F308FB13A31B
:102310001B013233B3FBF8F303F00F033B437FE7BA
:1023200004F05CF904FB00F3D9F804604FF0640892
:10233000B600B3FBF6F3B3FBF8F31E0104F04EF95D
:102340006043D9F804309B00B0FBF3F704F046F982
:102350006043D9F804309B00B0FBF3F3B3FBF8F310
:1023600008FB13731B013233B3FBF8F303F0F007E0
:1023700004F034F96043D9F804209200B0FBF2FA7B
:1023800004F02CF9BAE700BF00380140F8B5044664
:102390000E461546FFF76CFE07462268136836EABC
:1023A000030301D10020F8BD6B1CF7D0C5B9236829
:1023B0000320DA6822F08002DA60DA6822F0200274
:1023C000DA60DA6822F48072DA605A6922F0010277
:1023D0005A61012384F83930002384F83830F8BD7D
:1023E000FFF746FEC01B8542D7D2E0E7704710B525
:1023F000044630B390F8393003F0FF021BB980F87F
:102400003820FFF7F3FF0223226884F83930D368BD
:10241000204623F40053D360FFF796FE2368002084
:102420001A6922F490421A615A6922F02A025A610A
:10243000DA6842F40052DA600123E06384F839304C
:1024400010BD012010BD10B5044650B390F83930CE
:1024500003F0FF021BB980F83820FFF7C7FF022303
:10246000226884F83930D368204623F40053D360BF
:10247000FFF76AFE236800201A6922F490421A616D
:102480005A6922F022025A615A6942F008025A61DE
:10249000DA6842F40052DA600123E06384F83930EC
:1024A00010BD012010BD38B50D46044678B390F834
:1024B000393003F0FF021BB980F83820FFF796FF90
:1024C0000223226884F83930D368204623F400536D
:1024D000D360FFF739FE236800201A6922F40062F6
:1024E0001A615A6922F02A025A611A6942F480423A
:1024F0001A61196921F0200129431961DA6842F44F
:102500000052DA600123E06384F8393038BD0120DD
:1025100038BD70B50E4615460446002830D090F8F8
:10252000393003F0FF021BB980F83820FFF75EFF57
:102530000223226884F83930D368204623F40053FC
:10254000D360FFF701FE236800201A6922F490424D
:102550001A615A6922F02A025A61196921F00F01A1
:1025600031431961DA6822F400622A43DA60DA68DA
:1025700042F40052DA600123E06384F8393070BD20
:10258000012070BD704738B50546A0B10223002474
:1025900080F839300368DA6822F40052DA60DC60CF
:1025A0001C615C61FFF7EEFFEC6385F8384085F84D
:1025B0003940204638BD012038BD70B50D4690F831
:1025C00039100446C9B201291E4601D022294DD135
:1025D000002D49D0002A47D094F83830012B45D03F
:1025E000012384F838300023E36394F83930A2845F
:1025F000222B0CBF32231223E28484F83930E28C80
:102600008AB9324640212046FFF7C0FEC0B994F88F
:102610003930322B0CBF2223012384F839300023B8
:1026200084F8383070BDA368013AB3F5805FE28466
:102630004FF08001324620460DD1FFF7A7FE08B1CA
:10264000032070BD2B882268C3F3080353602369FD
:1026500043B90235D3E7FFF799FE0028F0D123688C
:102660002A785A600135CAE7012070BD022070BD8A
:1026700070B51E4690F839300446DBB2012B0D468A
:1026800001D0122B51D1002D4DD0002A4BD094F8FF
:102690003830012B49D0012384F838300023E3631C
:1026A00094F83930A285122B0CBF32232223E28505
:1026B00084F83930E38D5BB994F839300020322B3F
:1026C0000CBF1223012384F8380084F8393070BD20
:1026D000013BE385A3683246B3F5805F4FF02001EC
:1026E000204611D1FFF752FE08B1032070BD2368C8
:1026F00022695B6822B9C3F3080325F8023BD9E7D6
:10270000DBB225F8013BD5E7FFF740FE0028ECD10E
:10271000236821696A1C5B6811B92B701546C9E7EB
:1027200003F07F03F9E7012070BD022070BD90F82F
:102730003930DBB2012B01D0222B20D1E9B1E2B13B
:1027400090F83830012B1AD0012380F8383000235C
:10275000C3638284C28490F8392080F83830222AFA
:102760000CBF3222122280F8392002680162D3683D
:10277000002043F08003D36070470120704702209F
:10278000704790F83930DBB2012B01D0122B28D1E1
:1027900029B322B390F83830012B22D0012380F8DE
:1027A00038300023C3638285C28590F8392080F8D1
:1027B0003830122A0CBF32222222036880F83920D6
:1027C000DA68816242F48072DA605A69002042F06D
:1027D00001025A61DA6842F02002DA607047012093
:1027E000704702207047134690F8392010B5D2B2D6
:1027F000012A044601D0222A2ED159B353B394F8AA
:102800003820012A28D0012284F838200022E263EF
:1028100094F83920206B222A0CBF3222122284F82D
:1028200039200E4AA384E384216282620C4AC26288
:102830000C4A02632268043204F0C5FE6FF04002C5
:10284000002023681A605A6942F080025A6184F8B5
:10285000380010BD012010BD022010BDDD29000888
:102860000B2A0008572A000838B5044690F83900AA
:102870001346C0B2012801D012282BD141B33BB37B
:1028800094F83820012A25D0012284F8382000222B
:10289000E26394F83920606B122A0CBF32222222A4
:1028A00084F839200C4AA162A38582620B4A25680C
:1028B000C2620B4A02630A46291D04F084FE00200E
:1028C0002268536943F04003536184F8380038BDEF
:1028D000012038BD022038BD172A00084B2A000805
:1028E000572A000890F83830012B26D0012390F8A1
:1028F000392080F83830122A09D10268536923F050
:1029000080035361002380F838301846704790F8F0
:102910003920222A04D10268536923F04003F0E7EA
:1029200090F83920322A04D10268536923F0C00399
:10293000E7E7002280F83820E7E70220704790F8A8
:10294000383082B0012B32D0012390F8392080F842
:102950003830122A08D10268536943F0800353616A
:10296000002380F838301FE090F83920222A0AD15D
:1029700003681A6800925A680092009A5A6942F0F5
:1029800040025A61ECE790F83920322A09D10368F5
:102990001A6801925A680192019A5A6942F0C0027B
:1029A000EFE7002280F83820184602B07047022076
:1029B000FBE7026810B553690446006B23F0C003BF
:1029C000536108B104F03DFE606B08B104F039FEBC
:1029D0000123002084F8393010BD704708B5036822
:1029E000426A1B6813F020030AD1D38413685A6922
:1029F00022F080025A61DA6842F04002DA6008BDD3
:102A0000104609F058FB08BD704708B5406AFFF74B
:102A1000FBFF08BD7047026808B51268436A12F0F0
:102A200020020DD11968DA854A6922F040024A6114
:102A300093F83920322A0CBF1222012283F8392060
:102A4000184609F057FB08BD704708B5406AFFF704
:102A5000FBFF08BD704708B50023406AC385C384E7
:102A6000012380F83930C36B43F01003C36309F0CE
:102A70005FFB08BD026813B511680446C907D36837
:102A800005D5DB0542BFC36B43F00103C363116887
:102A90005369880703F0010304D51BB1E16B41F0D2
:102AA0000401E1631168490704D51BB1E16B41F0F2
:102AB0000201E1631168080704D51BB1E36B43F021
:102AC0000803E3631168D368890633D5980631D5C6
:102AD00094F8393003F0EF03222B2BD1A36821693E
:102AE000B3F5805FA36A76D1526800296FD1C2F333
:102AF000080223F8022BA362E38D013B9BB2E3851E
:102B0000C3B923682046DA6822F02002DA6094F81C
:102B10003920322A17BFDA68122322F48072DA6071
:102B20001FBF5A6922F001025A61012384F839302B
:102B300009F0E0FA23681968DA68090622D5100658
:102B400020D594F8392002F0DF02122A1AD1A268A7
:102B5000B2F5805F226A4CD11188C1F30801596037
:102B60002169002943D102322262E28C013A92B2F9
:102B7000E2843AB9DA6822F08002DA60DA6842F078
:102B80004002DA601968DA68490610D552060ED597
:102B9000DA68204622F04002DA6094F83930322BAD
:102BA0000CBF2223012384F8393009F084FAE36B47
:102BB0005BB1236820461A6801925B680193019B10
:102BC000012384F8393009F0B3FA02B010BDD2B253
:102BD00023F8012B8FE721B9591C5268A1621A70A2
:102BE0008AE75268591CA16202F07F02F7E70132BE
:102BF000BAE7511C216212785A60B6E790F8383073
:102C0000012B4FF002030CD0026880F83930D368F2
:102C100043F00103D360012380F83930002380F8AA
:102C200038301846704790F83830012B4FF00203C7
:102C30000CD0026880F83930D36843F00203D360C7
:102C4000012380F83930002380F838301846704767
:102C500090F83830012B4FF002030CD0026880F856
:102C60003930D36823F00203D360012380F8393070
:102C7000002380F838301846704790F83830012B20
:102C80004FF002030ED0026880F83930D36823F089
:102C90000C0343F00803D360012380F8393000238C
:102CA00080F838301846704790F83830012B4FF0D4
:102CB00002030ED0026880F83930D36823F00C0389
:102CC00043F00403D360012380F83930002380F8F7
:102CD00038301846704790F839007047C06B70471D
:102CE00037B50546002406F037FA2846234610F982
:102CF000581F01220194009407F088FB2846022304
:102D000010F9641F012200930194234607F07EFB13
:102D10002846234610F9701F01220194009407F001
:102D200075FB01222846234610F97C1F0192009270
:102D300007F06CFB03B030BD30B500259DF90C40A9
:102D4000856069B90261436107220023C1600362A3
:102D500043628362C2620CB94FF48273436030BD38
:102D60004FF40061EEE70E4B1A6800238A4204D943
:102D70000133072B4FEA5202F8D113F0040F0CBFB6
:102D80000022202213F0020F0CBF0021102113F0AB
:102D9000010F0CBF002308230A431343C36170478C
:102DA0002C0000202DE9FF478A46044690461F4626
:102DB0009DF93060FEF7D2FFBAF1070F65D12046CA
:102DC0003E4B5A6942F480525A615A6922F4805249
:102DD0005A611A6A42F480521A621B6A03F48053E1
:102DE0000293029B364B02254FF0050940F8583BF1
:102DF0002A46002351468DE8200207F007FB0023F6
:102E00002A46414604F164008DE8200207F0FEFAEC
:102E100000232A46394604F170008DE8200207F0AD
:102E2000F5FA012331460093CDF8049000232A4699
:102E300004F17C0007F0EAFA01361BD14FF400736D
:102E4000A3610023A360E360236163612362636283
:102E5000A3620723E3624FF482736360194920463B
:102E6000FFF781FF204600F049F8FEF77FFF04B02E
:102E7000BDE8F08700230722A360E360236163615C
:102E800023626362A362E262E7E7BAF11F0FE5D152
:102E90000A4B20469A6942F480429A619A6922F468
:102EA00080429A615A6A42F480425A625B6A03F431
:102EB00080430393039B044B95E700BF0038024017
:102EC00000300140809698000038004038B5054633
:102ED00002680C46136843F040031360FEF73EFFA0
:102EE0002B689A689107FCD5E4B2DC609A68D20737
:102EF000FCD5DC68FEF73AFFE0B238BD10B50446F9
:102F0000002832D090F8513003F0FF021BB980F84E
:102F1000502006F01FF90223216884F851300B6815
:102F2000A06823F040030B606368A2690343E06874
:102F300003432069034360690343E0690343206A54
:102F40000343A06A034302F4007003430B60120CB6
:102F5000636A02F004021A43E36A4A6000200B61CC
:102F60000123606584F8513010BD012010BD0000C0
:102F700030B50C460E4B05460E4885B0036003F590
:102F80008A331A6A42F400721A621B6A03F40073ED
:102F90000393039B08F0D2FE631C07D00023032297
:102FA000019300932146284607F030FA05B030BD62
:102FB00000240140800D00204FF0206208480023CB
:102FC00042634FF48062426101228360C3604362C6
:102FD000C3628363C36382628361C36108F083BA9F
:102FE000800D0020002330B585B001930293039338
:102FF000012292FAA2F3B3FA83F302249B0003F1B5
:10300000844303F58E031A60284A94FAA4F31068E7
:1030100094FAA4F3B3FA83F303F01F0320FA03F343
:10302000DB07F2D5136A224C43F400731362136A70
:10303000204603F400730093009B012302930623B0
:10304000019101A9039308F06DFC22682046936862
:1030500043F00103936008F079FD4FF0FF31204603
:1030600008F001FB204608F083FB226885B29368D4
:1030700023F001039360019B103B012B02D82046F3
:1030800008F05CFE094A136A23F4007313620123FB
:1030900093FAA3F3B3FA83F3002228469B0003F1CB
:1030A000844303F58E031A6005B030BD003802403A
:1030B000800D0020000000002DE9F04FDFF898801F
:1030C0001F46234C18F801308DB00A9363680646FA
:1030D000894693469DF858509847002835D10B9063
:1030E000E26830469047012608220B9BDFF86CA06F
:1030F0000793069305930493039302970192009319
:103100008AF80490334609950896A7690A9A5946A1
:103110003046B8479AF81830C84483B198F8101070
:103120000D31636DC9B230469847636B55B9094A92
:103130000125D068984728460DB0BDE8F08F98F873
:103140002010EDE700209847F5E70025F3E700BFE2
:103150007CD80008100E0020F8D300080C020020D4
:10316000074B10B51C7E074B0B4434B11B7C10443D
:10317000834234BF0020012010BD93F82030F6E7D1
:103180000C020020F8D30008F8B5184E0C4617467C
:1031900096F9013018B1164A1BB91846D3613B7035
:1031A000F8BDD26900213F2A19D95F2A3170F6D9BA
:1031B00002F01F02012AF2D1082B12D08B42EEDD61
:1031C000013BDDB26BB2002DE9D164B106F12C00F8
:1031D0000C22084902F0D5FC20462B46DFE70846C2
:1031E000DDE70423DBE72346D9E700BF100E00200C
:1031F0000C020020040E0020012370B50025214C94
:10320000214E224A2386137053709370204B3278DC
:1032100006F124011A70727803C95A7096F82120B9
:1032200084F8205083F8212003F1240282E803006F
:1032300003F12C000C2206F12C016562A562E56108
:1032400084F82C5084F82D5084F82E5084F8325095
:1032500084F8335002F095FC0C2206F12C0104F1A5
:10326000340002F08EFC636C84F8405084F84150C6
:1032700084F842501BB9482384F8483070BD5D6221
:103280009B6AF7E70C020020D80D00201C000020EC
:10329000100E002000232DE9F74F03604360836088
:1032A0003B4B019203EB8102D2F83080394A04464D
:1032B00090458A4669D0384DA8450CBF02250025A7
:1032C000012013F80A30984009F02CFA06464046CF
:1032D0000F4609F017FA02460B463046394609F008
:1032E000B1FB00222D4B09F083FA06460F462C4B0A
:1032F00093F808B0ABF10400400009F013FA32462D
:103300003B4609F075FA019B80465800894609F052
:10331000F9F902460B464046494609F0B7F83246ED
:103320003B4609F08FFB08F03FFF09F023FD834582
:1033300038BF834600221B4B3046394609F058FA05
:1033400080465846894609F0DDF932463B4609F089
:103350004FFA0022144B09F04BFA02460B46404646
:10336000494609F091F80022104B09F08DF808F059
:103370001BFF84F800A06570C4F804B009F0D2FC0B
:10338000A060204603B0BDE8F08F012598E700BF9C
:10339000F8D3000890D0030020A1070000408F4020
:1033A000100E0020000010400000E03F0000F03F41
:1033B00010B50D4C04F14C0002F066F994F8402071
:1033C000234632B1012284F82D20226E22F004021D
:1033D000226693F86430022B01BF044A137843F04D
:1033E0001003137010BD00BF0C020020D40D00208C
:1033F00008B50C4B1A6E42F040021A6693F8403042
:103400000BB1FFF7D5FF084A08481378012143F0B4
:103410001203137002F085F9BDE80840034802F07A
:10342000BEB800BF0C020020D40D002074020020A2
:1034300073B5134C134E04F17C0002F025F994F897
:103440006450D4F8A010AB1E5D425D4194F99C20FD
:1034500094F89D3000910C48716AFEF75BFBB4F85C
:10346000A03094F89D2094F99C100095706AFFF7A5
:1034700023FE10B1012384F8A83002B070BD00BF54
:103480000C020020100E002090D4000810B50B4C48
:1034900094F86430022B0DD0094BDB6A9847022365
:1034A000084A84F8AD3084F8C130137843F0100333
:1034B000137010BDFFF7BCFFF1E700BF0C02002046
:1034C0007CD80008D40D00202DE9F84302F033F930
:1034D0005B4C074694F86430022B00F08880594B0F
:1034E000DB6A9847584EB378002B00F08380D4F8FD
:1034F000CC1056481E3902F014F9544802F04FF827
:1035000094F86430022B07D05148D4F8E41002F04C
:1035100008F94F4802F043F894F86430022B02D0C7
:1035200094F840307BB14FF47A714A4802F01CFBAA
:10353000D4F8E41001F5FA610144474802F0F1F8CB
:10354000454802F02CF894F84850C4F82873ED0070
:10355000631993F8ED200C2303FB02620023D36070
:1035600094F8203097609788002B54D1D4F82C031E
:1035700002F0E3F809F0C6F82DA3D3E90023804652
:10358000894609F0A7FB002843D12BA3D3E90023E8
:103590004046494609F09EFB002842F2107318BFCE
:1035A0004FF47A73BB424FF00C0138BF3B462544C1
:1035B00095F8ED20013B01FB0266D4F8302353431C
:1035C000F360238ED4F83823D4F83013013B01FB89
:1035D0000323C4F8383394F8403033B984F8AD305D
:1035E00094F82C30013384F82C30BDE8F883FFF7D1
:1035F0001FFF77E784F8AD30032384F8C130174B01
:103600001A780AB901221A701A7842F010021A7058
:1036100099E76423C6E794F83433002BD1D07B1E9E
:10362000D4F830735F43D760CBE700BFAFF30080BF
:103630000000000040774B4100000000FCE18241A7
:103640000C0200207CD800081C000020DC020020B6
:103650008802002018FCFFFF58020020D40D002033
:1036600037B5114C04F1D00002F00EF8002384F8B5
:10367000A83094F86430022B02D10C4B1B6B984796
:103680000020B4F8943094F8912094F9901094F8B4
:103690004840074D0090074804F0070405FB04006C
:1036A000FFF70AFD03B030BD0C0200207CD80008F3
:1036B000C0270900A070083710B50E4C94F864308C
:1036C000022B14D00C4BDB6A984794F8A830012BDE
:1036D0000CD194F8402003230AB184F8AD30074A96
:1036E00084F8C130137843F01003137010BDFFF756
:1036F0009FFEEAE70C0200207CD80008D40D0020D1
:1037000010B5154C94F86430022B1BD0134BDB6AB8
:10371000984794F8A83094F84020B3B904230AB12C
:1037200084F8AD30D4F8280384F8C13002F005F8ED
:10373000D4F8E430984204D3094A137843F01003D4
:10374000137010BDFFF774FEE3E705230AB184F898
:10375000AD3084F8C130EFE70C0200207CD80008BF
:10376000D40D0020F0B5811D841E0125002000220B
:10377000134634F8026F05FA02F7B74308BF013366
:1037800002F1010208BFDBB2102AF4D118448C42C6
:10379000C0B2ECD1F0BD38B504460E480D4690F9E4
:1037A0000130042B03D0083BDBB2052B04D8022CDC
:1037B000B8BF0224204638BD2C30FFF7D3FF312894
:1037C00003D9AC42B8BF2C46F4E7052CB8BF05249A
:1037D000F0E700BF100E00202DE9F04F07460D4620
:1037E00089B0994C01920293019B9D4202D309B08A
:1037F000BDE8F08F7B5D6E1C023BF6B2062BF6D85F
:10380000DFE813F007001500050128018401AE016F
:10381000C701002384F8C130BA5DAB1CDBB284F869
:10382000C820FB5C0335EDB284F8C930DCE7002327
:103830000DF1140ADFF818920593CAF80430CAF89B
:10384000083003EB0902928D2AF8032002330C2B77
:10385000F7D1BB5D681D03F00F02009294F83C2382
:103860001B094FFA83FB22BB99F901205A4504D169
:1038700099F9002000998A421BD094F8332094F8DB
:103880003230C2F10F02D2B2013A93420FDA032171
:10389000E21882F83D139A1C84F83220002201338A
:1038A000DBB2234483F83D23012384F84230C5B2C0
:1038B0009AE7291DEA1C0235D2B2EDB2C9B2BE5C4C
:1038C00017F801807A5DC5B242EA0622C8F30216F3
:1038D00018F00F0808BF4FF00108062E0DD14FF663
:1038E000FF71ADF81C20ADF81410ADF81610ADF84E
:1038F0001810ADF81A1007260CE0072E56D100213B
:10390000ADF81C20ADF81410ADF81610ADF8181075
:10391000ADF81A10042B78D906F0FD06009B0A2B8F
:1039200000F36181072E26D19DF800300C2251460C
:10393000464889F8003089F801B002F022F9A38ED8
:10394000BDF8142089F820801340A386BDF8162006
:10395000E38E1340E386BDF81820238F134023879E
:10396000BDF81A20638F13406387BDF81C30A3870E
:10397000BDF81E30E38794F8332094F83230C2F15A
:103980000F02D2B2013A9342BFF62EAF0321E218E2
:1039900082F83D139A1C0133DBB2234484F83220B1
:1039A00083F83D63012384F842301DE7052E0DD0D6
:1039B00008A901EB4606032B26F80C2C9BD8504691
:1039C0000393FFF7CFFE0128039B94D80626A1E7B7
:1039D0004EFA03F1C9070CD5C11804EBC10191F8E7
:1039E000EC1041F3031C41F30301594501DCE345AD
:1039F00094DD0133102BEBD10132052A8CD005ABBD
:103A000033F812E010010023E2E70022F7E701217A
:103A1000BB5D94F8332084F82E3001FA03F323863B
:103A2000C2F10F0294F83230D2B202359A42EDB2AE
:103A30007FF6DAAE5A1884F832200422234483F841
:103A40003D2384F84210CFE60C0200203C0E0020FB
:103A5000100E00202A1DE91CD2B2AB1CC9B217F807
:103A60000280DBB2795CFB5C4FEA084848EA012837
:103A700048EA03034FF0640808FB03F85E4BBE5DA1
:103A8000053540461B6AC6F30219EDB206F00F0673
:103A90009847002838D0594B594A4344934233D869
:103AA0005849B3FBF1F201FB1233002B14BF06227D
:103AB0000722F6B2A6F10803052B00F29780B9F1B0
:103AC000030F00F39680072A01BF4F4B83F828604D
:103AD000C3F8248083F8219094F8331094F832309E
:103AE000C1F10F01C9B201398B42BFF67DAE05208D
:103AF000E11881F83D03991C0133DBB284F83210E0
:103B0000234483F83D234DE70622D2E7D4F84C3313
:103B100023B31B6813B3984794F8332094F83230DA
:103B2000C2F10F02D2B2023A934215DA0621E2182C
:103B300082F83D135A1CD2B2224482F83D03DA1CAB
:103B4000023384F83220DBB29DF80820234483F846
:103B50003D23012384F84230354645E6FF20DBE76C
:103B600094F8332094F83230C2F10F02D2B2013A05
:103B700006359342EDB2BFF637AE0721E21882F860
:103B80003D139A1C0133DBB284F832202344002217
:103B9000B7E7B85D1C4E10F00F0008BF012008F019
:103BA000C1FD0022194B08F023FE09F0E3F8306153
:103BB00008F0A8FD0022154B08F068FC09F0DAF8BF
:103BC00094F8332094F83230C2F10F02D2B20235A9
:103BD0009A42EDB270617FF607AE5A1C84F832202B
:103BE000234408228DE706F0FB06C4E602F0FD023E
:103BF00065E702F0FB026FE77CD80008608FF7C82A
:103C000040164000C0270900100E002000408F40E1
:103C10002DE9F04F0C46002107468FB0DBB2079329
:103C2000AB4D9DF81C300D912B7495F8A83085F89C
:103C3000B0106B74A74BEA81DB6AE970A9706971F7
:103C4000A96029736973A97469612970984705F19E
:103C50007C0001F019FD3B7808935B09013B062BC2
:103C600000F2FF81DFE813F00700FD019200FD0183
:103C70009200FD01EA0195F8203013B101236B7029
:103C800023E1611E944BD5F8702489B2781C04F0AE
:103C9000FDFC9DF82030211F85F870332C440DABBE
:103CA000D5F8702489B28D4804F0D1FC94F86E33B5
:103CB00094F86D231B0443EA022394F86C23134306
:103CC00094F86F2343EA02630D9A93425AD18449D0
:103CD000B5F87424009101F11003D5F87004213176
:103CE00004F0F6FC95F8763395F875231B0443EA47
:103CF000022395F874237B4C1343C5F87834D5F828
:103D00007733C5F87C3495F87B33C3F3021203F0A4
:103D10000F0384F8283095F87C3384F8212013F0C1
:103D20000F0308BF01232361206908F0EBFC002288
:103D30006D4B08F05DFD09F01DF8206108F0E2FC14
:103D40000022694B08F0A2FB09F014F8002385F863
:103D5000C13001236061654885F82030FDF7F4FE2D
:103D6000634B5B786370634A63481378012143F0C7
:103D70001003137001F0D5FC5F4801F010FC0FB088
:103D8000BDE8F08F062385F8C130ECE7D7F80130A5
:103D90000593059AD5F87C349A4276D0D5F84490AC
:103DA000B9F1000F01D10A2369E7D9F80030059A6B
:103DB0009A4267D14FF0010B09F104030693D9F839
:103DC000245009F1140309937B7997F80680049332
:103DD0003B1913F802AC13F8032C4FEA0A4A4AEADB
:103DE000022A13F8042C13F8013C4AEA020A4AEAB0
:103DF00003630B93FB79211F48EA0328A8EB05080E
:103E00001FFA88F80FFA88F3002B47DB4FF0010AFE
:103E1000049B08EB050603F00F030A930DAB029316
:103E2000069A059B0196CDF800A089B2384604F0A9
:103E300055FB0D9B0B9A264D9A4240F01781B8F521
:103E4000804F3ED20023049A6B70C2F3001285F8B3
:103E500002B06A71AB602B736E6185F8AD30EB61B7
:103E600085F83330A846BBF1000F75D002232B70C4
:103E7000D9F824309E4241D1002E3FD0072388F844
:103E8000013022E0D9F828908AE74FF0000B144B5C
:103E9000AD6A099310330693D94695E705F5803648
:103EA0001E440DAB0293012301960093069A059BD5
:103EB00089B2384604F012FB0D9B0B9A9A4218BF48
:103EC0002E460922024B5A705E61FFF791FA56E7BF
:103ED0000C0200207CD800087D0500207C05002015
:103EE0005C050020100E002000408F40CED400085A
:103EF000D80D0020D40D002074020020C9F82460E1
:103F00004FF0000998F8AC30012B02D1049B9806C1
:103F100002D5002388F832300A9B03F10802231FE0
:103F20009B1A002B7ADD0A9BB95C03F1090AA4EB0A
:103F30000A04514B043CE4B2D970002943D1049ADD
:103F400012F00F0B28D001234C490A7842F00202EC
:103F500063F382020A7006E7089A02F0E002A02AE0
:103F60000ED1AB6A85F841A09E4285F800A010D121
:103F700016F1000918BF4FF00109C8F82860C1E721
:103F800085F841302B70AB6A9E4202D1002E7FF43F
:103F900075AF4FF00009F0E703F55C750123069A51
:103FA00000932146059B07EB0A000295019604F059
:103FB00047FB224659462846079BFFF70DFCB9F1FF
:103FC000000F1DD0BFE7049B190704D0079B0821F1
:103FD0003846FFF701FC01960126DFF8ACB00096E9
:103FE000CDF808B0059B099A214607EB0A0004F0BA
:103FF00027FBB9F1000FA6D1C5F808B02C736E737A
:10400000049B13F0200410D0012388F8B03088F806
:1040100012301B4801F038FB002395E7049B1B0777
:10402000CDD0079B08213846C7E7164B88F8B0402B
:104030005A781B789A42ECD8234685E7124E2246DE
:10404000791C304601F09DFD03232B7000230B4AA1
:104050006B701378013C43F00203AE602C73137055
:1040600081E601236B70FFF7C3F97CE6B8F5804F5A
:10407000BFF427AF0B2302E60C020020D40D002072
:10408000580200201C0000207C0500202DE9F04192
:104090000E46002186B01746BDF83020BD4C8B423D
:1040A00008BF0A461D460378D2B284F883340378E9
:1040B00005915B09A4F8801484F8401084F88224E8
:1040C000072B00F27581DFE813F00800730161002F
:1040D00073015E007301730157010123AE4DD4F8E3
:1040E0008415E8180822A4F8803401F054FDB4F8CF
:1040F0008004D4F88815083080B2A4F8800408221F
:10410000284401F048FDB4F880340833A4F8803422
:10411000A24B5B699847B4F8803482B2E11881F809
:104120008304991C01339BB2A4F87424234489B2FC
:10413000120AA4F8801483F88324C9B2D4F8702436
:1041400005AB284604F083FAB4F88034059AE118E8
:1041500081F88324591C89B22144100A81F8830410
:10416000991C89B22144100C81F88304191D033372
:104170009BB2A4F88014120E1C4484F883240020FF
:1041800006B0BDE8F081012384F8403094F8203077
:10419000002B00F00F813078814A0121C009FEF721
:1041A000F3FF337860F38613337094F8413033B102
:1041B000002384F84130337843F020033370D4F87F
:1041C0007C34DFF8E4811A0A84F8843484F8852486
:1041D0001A0C1B0E84F8862484F88734337894F8FC
:1041E000320084F88834636A08F24F2184F88934F5
:1041F00094F833201B0A404484F88A3401F0C1FC4F
:1042000094F8321094F833301944C9B284F832105B
:10421000002D73D094F88234002B6FD00F2977D8FB
:1042200094F84230002B73D0337888B2C3F3030282
:104230000A4462F30303337084F88834002308F5DA
:10424000A3769AB2904252D8284601F10806F6B2F7
:1042500000224FF0080E13464FF0050C84F8422060
:10426000994257D884F8332012B1012384F84230A0
:10427000C0B194F88214A9B1751C474AEDB2531924
:10428000264486F883740293636A89B20193002FEF
:104290006AD100976FF49177D4F87C343A4404F0F3
:1042A00057F92E46002594F8821405AB3144A4F842
:1042B00080140293636A3B4A0193009502F2231033
:1042C000D4F87C3404F00AF9059BB4F88024180A69
:1042D000A11881F8833481F884040432180C1B0E71
:1042E00081F8850481F88634A4F8802447E718F81B
:1042F00003E0F21882F808E00133A2E741B194F834
:1043000042302BB10027284884F8821408269FE702
:104310002846FBE7E51895F83D53033D052D15D8D4
:10432000DFE805F02014031D2017013304EB020819
:10433000DBB2551C88F88CC504EB0308EDB298F885
:104340003D8302322544D2B285F88C850133DBB23D
:1043500086E7551C224482F88CE5EAB2F6E7023380
:10436000DBB2F3E70133FBE700236FF499760093A8
:10437000D4F87C34324492E7002D3FF400AFDAB138
:1043800029460A4801F0FDFB94F882340133A4F871
:104390008034F4E60C0200208F0600207CD8000850
:1043A000110E00206C050020490500209006002019
:1043B0000220E5E60720E3E61046E1E62DE9F047B6
:1043C0008CB00CAB03E903000C213B4A9DF82D3067
:1043D000DFF8008101FB032398F9000093F9061030
:1043E000FFF7D9F9012598F90160344CDDF82890E0
:1043F000A757044494F970A0314C84F8AE60314E54
:1044000084F8AF00F368484684F8C15084F8AD5092
:10441000C4F8BC909847736D94F880142846984768
:1044200098F901300022032B40F6B83308934FF07F
:1044300008030293D4BF1346022307920692059203
:1044400003920097D8BF1A46514628460495019515
:10445000F769B847736A94F8801428469847C4F8F7
:104460003003D4F8302398F90130C4F8B420C4F8EC
:10447000C4204946009214485246FDF74BFB4FF4C6
:104480007A71124801F04DF9104801F088F894F85B
:10449000203023B994F89B35013384F89B35B36AF7
:1044A00094F880140A4898470020236E43F00103D3
:1044B00023660CB0BDE8F0871C000020F8D300088C
:1044C0000C0200207CD80008DFD400087402002011
:1044D0008F060020100E00202DE9F04F904C97B071
:1044E00094F82E30FF2B00F0FD800BB9C4F8383360
:1044F0008C4FDFF850823E4604A84822002101F08C
:1045000054FB4046FFF72EF920B908228649404661
:1045100001F037FB97F90130032B04DD94F83C30B0
:104520000BB9BB8EA387D4F8280301F006F9D4F8A1
:104530003853A8427CD30023C4F8383394F8203091
:104540007A4D1BB194F83433002B6AD0A868D5F8A3
:104550000C9001F0F2F881459CBF0023EB60D5F888
:104560000C90B9F1000F02D14FF0FF350DE0A868B3
:1045700001F0E3F8A9EB00000130F5D0A868D5F808
:104580000C9001F0DAF8A9EB000500231946DFF8DA
:10459000B89196F901B0019309F1B60ADAB2039223
:1045A00039F8022F02920022029840FA02FE1EF011
:1045B000010F15D003EB020C4FEACC0E5AF83CC0A9
:1045C000BCF1000F0CD004EB0E0C9CF8ECC04CF3CB
:1045D0000300584504DC4CF3031CDC4580F2868064
:1045E0000132102AE0D11033502BD7D1002954D0FA
:1045F0000139002001F0B8FA16AB184410F8483C15
:104600003F2B84F848300AD80122190903F00F0320
:104610009A4038F8113023EA020328F811300025B7
:104620000BE0EB60A0E701980130C0B20190D7E742
:10463000D4F8280301F081F82D1A96F901103C4BAB
:1046400096F8212003EB8103134493F97B107268E1
:104650003848FEF71FFE726896F928103648FEF7B4
:1046600019FE94F82030FBB9B369D4F898201344AC
:10467000C4F8CC30F369D4F8A4201344C4F8E4306F
:104680001DBB94F8483004EBC304E83494E80300FD
:10469000FFF794FE17B0BDE8F08F019B002BCCD143
:1046A000264B5B787B7027E794F8322096F901104F
:1046B00094F88204FEF754FDB0B13369D4F8982021
:1046C0001344C4F8CC307369D5E7236E294643F010
:1046D00010031B48236601F024F8194800F05FFF1F
:1046E0000020D7E70A20D5E70820D3E74FF00C0CCD
:1046F000D6449EF805E00D480CFB0E0EDEF80CE0EB
:10470000BEF1000F8FD116A801F1010E01440398EC
:1047100000EB020C01F848CC5FFA8EF160E700BFB5
:104720000C020020100E00203C0E00201C00002077
:10473000F8D300089C020020A8020020D80D002019
:10474000A8070020400200203E0200207FB54FF065
:1047500000060D4C94F83C5365F3C71604AD05F8FC
:10476000046D009313460A462946FFF78FFC40B9B3
:10477000636A84F8B10084F8B000C4F8B830FFF779
:10478000ABFE04B070BD00BF0C02002030B51A4D66
:1047900085B005F29C5000F077FF2B6E23F01003DC
:1047A0002B66164B1B781B0722D595F8C040FCB929
:1047B000FEF722FD95F89B25FF2112F0010F0CBF9B
:1047C000042200220E4B02A899865A70234664F3F5
:1047D00047138DF80830234695F83C2304A962F36B
:1047E000C71301F8043D224600942346FFF74EFC10
:1047F000FFF772FE05B030BD0C020020D40D002082
:10480000100E002070B5984C984D04F1680000F02F
:104810003BFF2B78DA0640F18E80226E560644BFAD
:1048200022F04102226613F0090133D094F8AD2042
:10483000022A03D094F8C120022A2BD1226E8C4880
:1048400022F001022266002284F8322084F8B0208F
:10485000C4F8B4200122407884F8B10094F84000F4
:1048600020BB1ABB11B3180740F1A38094F8C01005
:10487000002940F09E8094F89B3594F8C11084F88C
:10488000CA3049B9626284F82C20236E23F00103F8
:1048900023660BE00022E1E794F8B0259A42F4D9B0
:1048A0002B786FF304132B70FFF770FF2B789907A9
:1048B00019D594F8B0206E4B1AB959781A789142EC
:1048C00011D9002284F82D2084F8402094F8B125D5
:1048D00012B9626A013262625B7884F8B130236E89
:1048E00023F00103236694F82D3023B3236E13F0D5
:1048F000100320D15E4E84F82D30727831789142C9
:1049000040F29480082A00F291800132D2B2727093
:10491000D20708D5574A92F901100129C4BF01F105
:10492000FF33DBB25370FFF7D7FD002861D12B783E
:1049300060F304132B70236E9E0744BF23F0020321
:104940002366266E002E40F085802B78D80708D588
:10495000D4F8B43548481B6898472B7866F30003B1
:104960002B702B78190708D5D4F8B43543489B68C9
:1049700098472B786FF3C3032B702B786FF30413D6
:104980002B702B789A0713D594F86430022B01D141
:10499000FEF74EFD2B785B0704D4D4F8B4353248CB
:1049A0005B6898472B7803F0FB036FF341032B7090
:1049B00070BD304A03F0020392F8201094F82C20C6
:1049C000914202D9002B3FF46BAF03F0FF0223B9F1
:1049D000E36984F832200133E361002384F82C304A
:1049E00094F8B135002B7FF450AF636A01336362F2
:1049F0004BE7082384F8AD30002384F8323084F884
:104A0000403084F8B0307378226E84F8B130194B9E
:104A100022F001025B78226684F8AE3094F8B1355A
:104A2000002B88D1636A0133636284E70C22144946
:104A3000144801F0A6F8236E23F001032366002337
:104A400084F8323084F8403084F8B030737884F8D9
:104A5000B130E3E74FF47A710B4800F062FE0A4888
:104A600000F09DFD8DE700BF0C020020D40D00205A
:104A70001C000020100E0020B8020020CC020020F4
:104A8000040E00203C0E0020740200200C21F8B51A
:104A9000184C194A94F84830054604EBC30393F8C0
:104AA000ED3004F1680601FB032393F90610134B64
:104AB00093F90000FEF76FFE114B4FF47A71184422
:104AC00090F97070304600F02CFE304600F067FD23
:104AD00094F848300B4A04EBC303D66BD3F8E800D4
:104AE0002A463946B047236E002043F0010323666F
:104AF000F8BD00BF0C0200201C000020100E00209A
:104B0000F8D300087CD8000838B50C460B4B51B2DE
:104B1000024620460A4CDB6B04F1680598474FF4C7
:104B20007A71284600F0FDFD284600F038FD236E1E
:104B3000002043F00103236638BD00BF7CD8000885
:104B40000C0200202DE9F84F002800F0E6800368F1
:104B5000002B00F0E2804368002B00F0DE808368C9
:104B6000002B00F0DA800FF2B819D9E9008900258E
:104B7000734C744BC4F84C1305211D70724B012209
:104B800019700A2159600621197240F6B831D960AE
:104B90004FF47A7119614FF4FA61596141F2883129
:104BA000996141F27071D961684984F8B02583F840
:104BB000202003F12402C4F8B40503C982E80300ED
:104BC0004FF6FF7204F1E8069A85DA851A865A864E
:104BD000FF2237464FF0300BAA4684F86450256612
:104BE00084F89B552576C4F82853C4F8385384F8C4
:104BF00034535D7083F821509A86DD86284607F08D
:104C000091FD42464B4607F0F3FD47A3D3E900234D
:104C100007F03CFC08F0AEF80135402D386087F80D
:104C200004B087F805A007F10807E7D100250FF2C7
:104C30000019D9E900894FF0440A2F46284607F0A9
:104C400071FD42464B4607F0D3FD3BA3D3E9002359
:104C500007F01CFC08F08EF80135082DC6F800029C
:104C600086F804A286F8057206F10806E6D10A2243
:104C7000374B01265A6006221A7240F6B832DA60C3
:104C80004FF4FA625A6141F288324FF47A759A61B0
:104C900041F270721D61DA6183F82060FEF7ACFAB0
:104CA0002C492D4800F074FC29462B4800F039FDB2
:104CB0002A492B4800F06CFC2A492B4800F068FC7C
:104CC0002A492B4800F064FC2A492B4800F060FC7C
:104CD00000F031FD294B2A4DC4F8B835294BC4F8F2
:104CE0002C03C4F8C035284B2848C4F8C835284BD5
:104CF000C4F8BC35274BC4F8C4352B6898476B699A
:104D0000984700F02BFF3046AB6D84F8D465984788
:104D1000EB6A98470020BDE8F88F0320BDE8F88FC4
:104D200000000000006A0841000000B000E4CA4131
:104D300000000000006A3841000000E057E9CA4165
:104D40000C020020D40D0020D80D002088D40008CB
:104D5000100E002005480008740200208D4700084E
:104D6000A807002061360008DC020020313400086A
:104D700088020020B133000858020020C93400081E
:104D80007CD80008113C000801370008C407002047
:104D90008D340008B93600082DE9F3411D4B064655
:104DA0005B780D468DF8073081B31B4F0DF107027C
:104DB00097F83C03002197F8324097F83380FEF7CC
:104DC000E3F93A7E154B9DF907703B4452B11B7CC9
:104DD0006B7044446B78E4B29C4206D9092002B05F
:104DE000BDE8F08193F82030F2E71B1B2B70002206
:104DF00039463046FEF7B4F950B1224639463046BE
:104E0000FEF7AEF90028E9D00020E8E70320E6E746
:104E10000820E4E7D80D00200C020020F8D3000899
:104E200000286FD003781C2B6ED8DFE803F00F1436
:104E3000181C212527292D30323A3F3D4143464950
:104E40004C4F52555A575C5F626568002F4B93F880
:104E50006430037123E02D4B93F82030F9E72B4B9E
:104E600093F83C33F5E7294BD3F87834436016E0E8
:104E7000264BD3F87C34F9E7254BF7E7254BF5E7CC
:104E8000224B93F8D435E4E7204B1B7EE1E7224B1D
:104E9000ECE7224A031D92E8030083E803000020A8
:104EA0007047031D1E4AF6E71E4BDFE71E4BDDE78A
:104EB0001E4BD1E71D4BDB68D8E71C4B1B69D5E7C0
:104EC0001A4B5B69D2E7194B9B69CFE7174BDB693C
:104ED000CCE7174B5B78BCE7144BFBE7144B1B7814
:104EE000B7E7124BFBE7094B5B6ABFE7074B9B6ACF
:104EF000BCE7064B5B6CB9E70C4B5B68B6E70B4B4A
:104F00001B7AA6E703207047022070470C0200209E
:104F10006C0500205C050020F4020020340E002007
:104F2000FC0D0020040E00203C0E0020100E00207E
:104F3000D80D002038B5002800F0BF80774B1A6EDE
:104F4000D20700F1E48002781C2A00F2E280DFE858
:104F500012F01D002F00330037003B003F004700D8
:104F60004D005400E00057005D0079005F009300A1
:104F70009B009F00A300A700AB00AF00B600C500D8
:104F8000BD00CC00CF00E000D200D800057900249D
:104F900083F864501DB1022D05D0002038BD604B50
:104FA000DB6A9847F9E783F84040FEF741FAF4E7F7
:104FB000027983F82020F0E7027983F83C23ECE7BC
:104FC0004268C3F87824E8E74268C3F87C24E4E741
:104FD0004168002971D01022524800F0D2FDDCE770
:104FE0004168002969D010224F48F6E7007983F81C
:104FF000D4054B4B9B6D9847CFE702791A76CCE7E7
:105000004A4B043003C883E80300C6E7484BF8E77F
:105010004468002C51D02046FEF7A4FB01284CD058
:105020000C222146434800F0ACFD0023424A434C89
:1050300019195088898D023301400C2B22F8021F68
:10504000F6D1AAE74468002C37D02046FEF78AFB49
:10505000012832D00C222146394800F092FD00236D
:10506000354A384C19195088898D023301400C2B70
:1050700022F8021FF6D190E703795A1E0E2A1CD897
:10508000304A82F8203088E742682E4BDA6084E7A5
:1050900042682C4B1A6180E742682A4B5A617CE7D0
:1050A0004268284B9A6178E74268264BDA6174E7D8
:1050B00090F90430DAB2042A2DD9032038BD90F9D2
:1050C0000430DAB2042AF8D81E4A25E090F90430F8
:1050D000DAB20A2AF1D8194A13705EE790F904305F
:1050E000DAB20A2AE9D8174AF6E742685A6254E760
:1050F00042689A6251E74368104A5360114A53600C
:105100004BE703790D4A13720E4A137245E70120EB
:1051100038BD022038BD094A53703EE70C0200201A
:105120007CD800086C0500205C050020340E0020AF
:10513000FC0D0020040E00203E020020D80D0020AF
:105140003C0E0020100E0020032082B002AB03E9C9
:10515000060002B070470320704788B10A490B6E01
:1051600013F001030ED14A6C43621AB94864104629
:1051700070471A46936A002BFBD19062184670471D
:1051800003207047012070470C020020B0B10D4A87
:10519000136EDB0714D4536C2BB1984206D1836A8B
:1051A0005364002383621846704713469A6A002AA4
:1051B000F7D09042F9D1826A9A62F2E703207047F1
:1051C000012070470C02002073B5054610B903207A
:1051D00002B070BD4C4C216E11F0010101D00120D4
:1051E000F6E70C2204F1C00000F0DFFC012384F894
:1051F000C1302B78032B00F28580DFE803F0024DED
:105200006975236EDB06EAD468680028DFD0A968D8
:105210000029DCD0EA68002AD9D02B7C002BD6D01C
:10522000012B98BF0223394E98BF2B743378C4F8F2
:10523000880543F00803337000262B7C02AD84F808
:10524000B035334666F3471305F8043DC4F88415BA
:10525000C4F8702484F8C06084F89B65FDF7CCFF27
:1052600094F89B25FF2112F0010F0CBF0422324657
:10527000274B284699865A70314633463246FFF707
:1052800065FA0028A4D00021204B84F840101A7839
:1052900061F3C3021A709BE701201C4A84F8C00026
:1052A000137843F00803137094F8332094F83230E5
:1052B000C2F10F02D2B29A42E5D91A1884F832200C
:1052C0000222234484F8420083F83D2300207FE734
:1052D00002230E4A84F8C030137843F00803137099
:1052E000A888FFF7D3FBCCE70323084A84F8C03033
:1052F000137843F0080313702A7BA968A888FFF786
:1053000003FCBEE70220BEE70C020020D40D002003
:10531000100E0020F7B5044610B9032003B0F0BD0D
:105320002C4E356E374615F0110550D11422294602
:1053300006F1AC008DF8045000F037FC0123227810
:1053400086F8AD309A4222D003D3032A27D0022018
:10535000E4E7214A137002229DF8043062F34713F8
:105360008DF804302179A268A38994F90E0097F88A
:105370003C5315B301A8FFF7E9F920BB2378174A7E
:1053800087F8AC30137843F001031370C6E7124B73
:105390005A70E27B1A709DF804300422DEE70E4A50
:1053A000294613709DF8043043F0E0038DF8043073
:1053B0006268238994F90A00D9E7C5B2042DACD8F4
:1053C000074D6870D6E7002387F84030A6E7012034
:1053D000A4E700BF0C0200201C000020D40D002018
:1053E000100E0020014B9870704700BF1C00002079
:1053F0000122024B586283F8B12570470C0200204D
:105400000022024B83F83423704700BF0C020020B7
:10541000014B83F8480070470C02002000234160D4
:105420000380438002817047438810B504895A1C69
:1054300092FBF4F304FB132342684380D15410BD64
:10544000028803460089511C91FBF0F200FB121206
:105450005968885C1A807047002303804380704736
:1054600002884088131A584258417047438801897E
:105470005A1C92FBF1F301FB132300889BB2C31A61
:1054800058425841704700000E4B1A6842F480722F
:105490001A6099680C4A0A409A601A6822F0885289
:1054A00022F001121A601A6822F480221A609A68A7
:1054B00022F47D029A600022DA604FF00062034B12
:1054C0009A607047003802400CC0FF8800ED00E091
:1054D0001A4930B58B681A4A03F00C03194C0C2B8F
:1054E00022D8DFE803F021212121072121210721F2
:1054F00021211300144B1360104B9B68C3F303135B
:105500001C44617A1368CB40136030BD8B68886897
:10551000C3F38343E55C8B680B4BC0F381506B4353
:105520000130B3FBF0F3E6E74B684FF40041C3F3FF
:105530004233013301FA03F3DDE700BF00380240D4
:105540002C00002009D500080024F4000022064B9E
:1055500010B51A700446006802F0D4FD2060BDE862
:10556000104002F0B3BC00BFE4070020074B10B4AA
:105570005A6822B10468091B11600021117202618E
:10558000012210BC02725860E0E700BFE40700206F
:105590000023C1600360436003720361704770B50C
:1055A0000446FCF7DBFBBCB1204D6A681346BBB96F
:1055B00061682372216062B1137AABB102F0C2FD5F
:1055C0006B681968884294BF091A491A23688B428C
:1055D0000CD22046FFF7CAFFBDE87040FCF7C6BBFF
:1055E0009C42F9D01B69E2E71168EFE76D682A6910
:1055F00022B95B1A23602C612261EDE71068084430
:10560000834205D25B1A23601068C31A1360F2E765
:10561000116921B91B1A236014612161DCE70E684E
:1056200015460A4601463044EAE700BFE407002079
:1056300010B5144C6368FBB102F084FD002163686F
:105640001A68197282428ABF121A19601A600023FE
:10565000606850B983B1606010BDC2680123006901
:10566000002AF6D060609047F1E70268002AF4D083
:1056700003B16060037A03B110BD0123BDE810409F
:10568000037263E7E4070020F8B5204E0546FCF7F7
:1056900065FB7468374604B11DB9BDE8F840FCF7F6
:1056A00065BBAC4226D1237AC3B102F04BFD7568CD
:1056B0002B6983B1002221682A721A6881420A4448
:1056C00094BF501A101A012218601A72184673609B
:1056D000FFF73CFFE1E700237B60DEE72369002B57
:1056E000F9D0216873601A680A441A60D5E723610B
:1056F000D3E71C462369002BCFD09D42F9D12B69FB
:10570000002BF4D029682361EDE700BFE4070020F7
:1057100010B50446FFF7B8FF2046BDE81040FFF77C
:105720003EBF38B504460D46FFF7AEFF2560656005
:1057300038BD02F007BD02F003BD02F019BD02F052
:1057400011BD08B50B4B5A689AB1127A8AB11A7812
:10575000042A04D81A780132D2B21A7008BD002285
:105760001A70FCF748FC012803D1BDE8084002F09C
:105770000CBD08BDE407002070B4467836B9012698
:10578000FF29467002D070BC06F0A8BB70BC704701
:10579000F0B407789DF81040FF2F9DF814509DF845
:1057A000186005D0069605950494F0BC06F0C8BBB9
:1057B000F0BC7047002203784270FF2B01D006F046
:1057C00019BC70470378FF2B01D006F039BC18468E
:1057D00070470378FF2B01D006F056BC184670477F
:1057E000F8B507460078FF280AD00C468E18B44258
:1057F00007D10020F8BD013D15F0FF0502D10120C1
:10580000F8BD0B2521783846FFF7DCFF0028F2D1E0
:105810000134ECE72DE9F8438046894617461E46D9
:105820000025BD42ACB207D009EB05014046FFF7A9
:10583000D0FF01350028F4D0B4FA84F03480400958
:10584000BDE8F88300232DE9F04F624AD1F80080CB
:10585000DFF8889185B038FA03F402D105B0BDE8CD
:10586000F08F01249C4018EA0406019400F0A78000
:105870004C6824F0100ABAF1020F16D14FF00F0E47
:105880004FEAD30C00EB8C0C03F0070BDCF8205034
:105890004FEA8B0B0EFA0BFE25EA0E0E0D6905FA88
:1058A0000BF545EA0E05CCF8205003254FEA430CD2
:1058B00005FA0CF5ED43D0F800B004F0030E0BEA46
:1058C000050B0EFA0CFE0AF1FF3A4EEA0B0EBAF186
:1058D000010FC0F800E016D8D0F808E0CF6805EA5C
:1058E0000E0E07FA0CFA4AEA0E0EC0F808E0D0F8DD
:1058F00004E0019F2EEA0707C4F3001E0EFA03FE20
:105900004EEA07074760C7683D408F6807FA0CF703
:105910003D43C560E50052D54FF00F0ED9F8205039
:1059200023F0030745F00105C9F82050D9F82050AD
:1059300007F1804705F00105039507F5803703F06F
:10594000030C039D4FEA8C0CBD680EFA0CFE25EA91
:105950000E0E214DA84234D005F58065A84232D004
:1059600005F58065A84230D005F58065A8422ED0A7
:1059700005F58065A84214BF0525042505FA0CF538
:1059800045EA0E05BD60F743156814F4803F0CBF6F
:105990003D4035431560556814F4003F0CBF3D4051
:1059A00035435560956814F4801F0CBF3D40354366
:1059B0009560D568A40254BF3D403543D56001339E
:1059C00049E70025DAE70125D8E70225D6E70325D0
:1059D000D4E700BF0004014000000240003802404C
:1059E0002DE9F04F00234FF0010C4FF003084FF06A
:1059F0000F0E354CDFF8D89031FA03F201D1BDE833
:105A0000F08F0CFA03FA11EA0A0552D05A0008FA8C
:105A100002F2D2430668DF081640066000EB8707F3
:105A200003F00706D7F820B0B6000EFA06F62BEA08
:105A300006063E62866803F00307164086604668E5
:105A4000BF0026EA0A064660C6680EFA07FB324027
:105A5000C26023F0030202F1804202F580329668B0
:105A600006EA0B0A194EB04225D006F58066B04210
:105A700023D006F58066B04221D006F58066B0429C
:105A80001FD048450CBF04260526BE40B24510D1A4
:105A9000ED43966826EA0B06966022682A4022604B
:105AA00062682A406260A2682A40A260E2681540EB
:105AB000E5600133A0E70026E7E70126E5E70226D7
:105AC000E3E70326E1E700BF0004014000000240D5
:105AD000001002400369194214BF012000207047E2
